{
  "_format": "hh-sol-artifact-1",
  "contractName": "Savant",
  "sourceName": "contracts/Savant.sol",
  "abi": [
    {
      "inputs": [
        {
          "internalType": "string",
          "name": "_name",
          "type": "string"
        },
        {
          "internalType": "string",
          "name": "_symbol",
          "type": "string"
        },
        {
          "internalType": "uint256",
          "name": "_supply",
          "type": "uint256"
        },
        {
          "internalType": "address",
          "name": "_hxrTokenAddress",
          "type": "address"
        }
      ],
      "stateMutability": "nonpayable",
      "type": "constructor"
    },
    {
      "inputs": [
        {
          "internalType": "address",
          "name": "spender",
          "type": "address"
        },
        {
          "internalType": "uint256",
          "name": "allowance",
          "type": "uint256"
        },
        {
          "internalType": "uint256",
          "name": "needed",
          "type": "uint256"
        }
      ],
      "name": "ERC20InsufficientAllowance",
      "type": "error"
    },
    {
      "inputs": [
        {
          "internalType": "address",
          "name": "sender",
          "type": "address"
        },
        {
          "internalType": "uint256",
          "name": "balance",
          "type": "uint256"
        },
        {
          "internalType": "uint256",
          "name": "needed",
          "type": "uint256"
        }
      ],
      "name": "ERC20InsufficientBalance",
      "type": "error"
    },
    {
      "inputs": [
        {
          "internalType": "address",
          "name": "approver",
          "type": "address"
        }
      ],
      "name": "ERC20InvalidApprover",
      "type": "error"
    },
    {
      "inputs": [
        {
          "internalType": "address",
          "name": "receiver",
          "type": "address"
        }
      ],
      "name": "ERC20InvalidReceiver",
      "type": "error"
    },
    {
      "inputs": [
        {
          "internalType": "address",
          "name": "sender",
          "type": "address"
        }
      ],
      "name": "ERC20InvalidSender",
      "type": "error"
    },
    {
      "inputs": [
        {
          "internalType": "address",
          "name": "spender",
          "type": "address"
        }
      ],
      "name": "ERC20InvalidSpender",
      "type": "error"
    },
    {
      "inputs": [],
      "name": "ReentrancyGuardReentrantCall",
      "type": "error"
    },
    {
      "anonymous": false,
      "inputs": [
        {
          "indexed": true,
          "internalType": "address",
          "name": "owner",
          "type": "address"
        },
        {
          "indexed": true,
          "internalType": "address",
          "name": "spender",
          "type": "address"
        },
        {
          "indexed": false,
          "internalType": "uint256",
          "name": "value",
          "type": "uint256"
        }
      ],
      "name": "Approval",
      "type": "event"
    },
    {
      "anonymous": false,
      "inputs": [
        {
          "indexed": true,
          "internalType": "address",
          "name": "user",
          "type": "address"
        },
        {
          "indexed": false,
          "internalType": "uint256",
          "name": "amount",
          "type": "uint256"
        }
      ],
      "name": "HexRewardsExchangedForSavant",
      "type": "event"
    },
    {
      "anonymous": false,
      "inputs": [
        {
          "indexed": true,
          "internalType": "address",
          "name": "user",
          "type": "address"
        },
        {
          "indexed": true,
          "internalType": "uint40",
          "name": "stakeId",
          "type": "uint40"
        },
        {
          "indexed": false,
          "internalType": "uint256",
          "name": "reward",
          "type": "uint256"
        }
      ],
      "name": "RewardClaimed",
      "type": "event"
    },
    {
      "anonymous": false,
      "inputs": [
        {
          "indexed": true,
          "internalType": "address",
          "name": "user",
          "type": "address"
        },
        {
          "indexed": true,
          "internalType": "uint40",
          "name": "stakeId",
          "type": "uint40"
        },
        {
          "indexed": false,
          "internalType": "uint256",
          "name": "returnAmount",
          "type": "uint256"
        },
        {
          "indexed": false,
          "internalType": "uint256",
          "name": "fee",
          "type": "uint256"
        }
      ],
      "name": "RewardReturned",
      "type": "event"
    },
    {
      "anonymous": false,
      "inputs": [
        {
          "indexed": true,
          "internalType": "uint40",
          "name": "stakeId",
          "type": "uint40"
        },
        {
          "indexed": true,
          "internalType": "address",
          "name": "user",
          "type": "address"
        },
        {
          "indexed": false,
          "internalType": "uint256",
          "name": "amount",
          "type": "uint256"
        },
        {
          "indexed": false,
          "internalType": "uint256",
          "name": "tierIndex",
          "type": "uint256"
        }
      ],
      "name": "StakeClaimed",
      "type": "event"
    },
    {
      "anonymous": false,
      "inputs": [
        {
          "indexed": true,
          "internalType": "address",
          "name": "from",
          "type": "address"
        },
        {
          "indexed": true,
          "internalType": "address",
          "name": "to",
          "type": "address"
        },
        {
          "indexed": false,
          "internalType": "uint256",
          "name": "value",
          "type": "uint256"
        }
      ],
      "name": "Transfer",
      "type": "event"
    },
    {
      "inputs": [],
      "name": "MAX_STAKES_PER_TIER",
      "outputs": [
        {
          "internalType": "uint256",
          "name": "",
          "type": "uint256"
        }
      ],
      "stateMutability": "view",
      "type": "function"
    },
    {
      "inputs": [],
      "name": "MAX_STAKE_DAYS",
      "outputs": [
        {
          "internalType": "uint256",
          "name": "",
          "type": "uint256"
        }
      ],
      "stateMutability": "view",
      "type": "function"
    },
    {
      "inputs": [],
      "name": "REWARD_PER_DAY",
      "outputs": [
        {
          "internalType": "uint256",
          "name": "",
          "type": "uint256"
        }
      ],
      "stateMutability": "view",
      "type": "function"
    },
    {
      "inputs": [],
      "name": "STAKEID_PROTECTION",
      "outputs": [
        {
          "internalType": "uint256",
          "name": "",
          "type": "uint256"
        }
      ],
      "stateMutability": "view",
      "type": "function"
    },
    {
      "inputs": [
        {
          "internalType": "address",
          "name": "owner",
          "type": "address"
        },
        {
          "internalType": "address",
          "name": "spender",
          "type": "address"
        }
      ],
      "name": "allowance",
      "outputs": [
        {
          "internalType": "uint256",
          "name": "",
          "type": "uint256"
        }
      ],
      "stateMutability": "view",
      "type": "function"
    },
    {
      "inputs": [
        {
          "internalType": "address",
          "name": "spender",
          "type": "address"
        },
        {
          "internalType": "uint256",
          "name": "value",
          "type": "uint256"
        }
      ],
      "name": "approve",
      "outputs": [
        {
          "internalType": "bool",
          "name": "",
          "type": "bool"
        }
      ],
      "stateMutability": "nonpayable",
      "type": "function"
    },
    {
      "inputs": [
        {
          "internalType": "address",
          "name": "account",
          "type": "address"
        }
      ],
      "name": "balanceOf",
      "outputs": [
        {
          "internalType": "uint256",
          "name": "",
          "type": "uint256"
        }
      ],
      "stateMutability": "view",
      "type": "function"
    },
    {
      "inputs": [
        {
          "internalType": "uint16",
          "name": "lockedDay",
          "type": "uint16"
        },
        {
          "internalType": "uint16",
          "name": "stakedDays",
          "type": "uint16"
        }
      ],
      "name": "calculateConsumedDays",
      "outputs": [
        {
          "internalType": "uint256",
          "name": "",
          "type": "uint256"
        }
      ],
      "stateMutability": "view",
      "type": "function"
    },
    {
      "inputs": [
        {
          "internalType": "uint40",
          "name": "stakeId",
          "type": "uint40"
        }
      ],
      "name": "calculateReturnAmount",
      "outputs": [
        {
          "internalType": "uint256",
          "name": "",
          "type": "uint256"
        }
      ],
      "stateMutability": "view",
      "type": "function"
    },
    {
      "inputs": [
        {
          "internalType": "uint256",
          "name": "consumedDays",
          "type": "uint256"
        },
        {
          "internalType": "uint256",
          "name": "stakedDays",
          "type": "uint256"
        }
      ],
      "name": "calculateReward",
      "outputs": [
        {
          "internalType": "uint256",
          "name": "",
          "type": "uint256"
        }
      ],
      "stateMutability": "pure",
      "type": "function"
    },
    {
      "inputs": [
        {
          "internalType": "uint256",
          "name": "stakeIndex",
          "type": "uint256"
        }
      ],
      "name": "claimReward",
      "outputs": [],
      "stateMutability": "nonpayable",
      "type": "function"
    },
    {
      "inputs": [
        {
          "internalType": "uint256",
          "name": "stakeIndex",
          "type": "uint256"
        }
      ],
      "name": "claimStake",
      "outputs": [],
      "stateMutability": "nonpayable",
      "type": "function"
    },
    {
      "inputs": [],
      "name": "decimals",
      "outputs": [
        {
          "internalType": "uint8",
          "name": "",
          "type": "uint8"
        }
      ],
      "stateMutability": "view",
      "type": "function"
    },
    {
      "inputs": [
        {
          "internalType": "uint256",
          "name": "amount",
          "type": "uint256"
        }
      ],
      "name": "determineTier",
      "outputs": [
        {
          "internalType": "uint256",
          "name": "",
          "type": "uint256"
        }
      ],
      "stateMutability": "pure",
      "type": "function"
    },
    {
      "inputs": [
        {
          "internalType": "uint256",
          "name": "_amount",
          "type": "uint256"
        }
      ],
      "name": "exchangeHexRewardsForSavant",
      "outputs": [],
      "stateMutability": "nonpayable",
      "type": "function"
    },
    {
      "inputs": [
        {
          "internalType": "address",
          "name": "account",
          "type": "address"
        },
        {
          "internalType": "uint40",
          "name": "stakeId",
          "type": "uint40"
        }
      ],
      "name": "getClaimedReward",
      "outputs": [
        {
          "internalType": "uint256",
          "name": "",
          "type": "uint256"
        }
      ],
      "stateMutability": "view",
      "type": "function"
    },
    {
      "inputs": [],
      "name": "getCurrentDay",
      "outputs": [
        {
          "internalType": "uint256",
          "name": "",
          "type": "uint256"
        }
      ],
      "stateMutability": "view",
      "type": "function"
    },
    {
      "inputs": [],
      "name": "getSavantContractHXRBalance",
      "outputs": [
        {
          "internalType": "uint256",
          "name": "",
          "type": "uint256"
        }
      ],
      "stateMutability": "view",
      "type": "function"
    },
    {
      "inputs": [
        {
          "internalType": "address",
          "name": "account",
          "type": "address"
        }
      ],
      "name": "getStakeList",
      "outputs": [
        {
          "components": [
            {
              "internalType": "uint40",
              "name": "stakeId",
              "type": "uint40"
            },
            {
              "internalType": "uint72",
              "name": "stakedHearts",
              "type": "uint72"
            },
            {
              "internalType": "uint72",
              "name": "stakeShares",
              "type": "uint72"
            },
            {
              "internalType": "uint16",
              "name": "lockedDay",
              "type": "uint16"
            },
            {
              "internalType": "uint16",
              "name": "stakedDays",
              "type": "uint16"
            },
            {
              "internalType": "uint16",
              "name": "unlockedDay",
              "type": "uint16"
            },
            {
              "internalType": "bool",
              "name": "isAutoStake",
              "type": "bool"
            }
          ],
          "internalType": "struct HEXStake[]",
          "name": "",
          "type": "tuple[]"
        }
      ],
      "stateMutability": "view",
      "type": "function"
    },
    {
      "inputs": [],
      "name": "hxrToken",
      "outputs": [
        {
          "internalType": "contract IERC20",
          "name": "",
          "type": "address"
        }
      ],
      "stateMutability": "view",
      "type": "function"
    },
    {
      "inputs": [
        {
          "internalType": "uint40",
          "name": "",
          "type": "uint40"
        }
      ],
      "name": "isStakeRegistered",
      "outputs": [
        {
          "internalType": "bool",
          "name": "",
          "type": "bool"
        }
      ],
      "stateMutability": "view",
      "type": "function"
    },
    {
      "inputs": [],
      "name": "name",
      "outputs": [
        {
          "internalType": "string",
          "name": "",
          "type": "string"
        }
      ],
      "stateMutability": "view",
      "type": "function"
    },
    {
      "inputs": [
        {
          "internalType": "uint40",
          "name": "stakeId",
          "type": "uint40"
        }
      ],
      "name": "returnReward",
      "outputs": [],
      "stateMutability": "nonpayable",
      "type": "function"
    },
    {
      "inputs": [],
      "name": "stakeDataFetch",
      "outputs": [
        {
          "components": [
            {
              "internalType": "uint40",
              "name": "stakeId",
              "type": "uint40"
            },
            {
              "internalType": "uint72",
              "name": "stakedHearts",
              "type": "uint72"
            },
            {
              "internalType": "uint72",
              "name": "stakeShares",
              "type": "uint72"
            },
            {
              "internalType": "uint16",
              "name": "lockedDay",
              "type": "uint16"
            },
            {
              "internalType": "uint16",
              "name": "stakedDays",
              "type": "uint16"
            },
            {
              "internalType": "uint16",
              "name": "unlockedDay",
              "type": "uint16"
            },
            {
              "internalType": "bool",
              "name": "isAutoStake",
              "type": "bool"
            }
          ],
          "internalType": "struct HEXStake",
          "name": "",
          "type": "tuple"
        }
      ],
      "stateMutability": "view",
      "type": "function"
    },
    {
      "inputs": [
        {
          "internalType": "uint40",
          "name": "",
          "type": "uint40"
        }
      ],
      "name": "stakeTierIndex",
      "outputs": [
        {
          "internalType": "uint256",
          "name": "",
          "type": "uint256"
        }
      ],
      "stateMutability": "view",
      "type": "function"
    },
    {
      "inputs": [],
      "name": "symbol",
      "outputs": [
        {
          "internalType": "string",
          "name": "",
          "type": "string"
        }
      ],
      "stateMutability": "view",
      "type": "function"
    },
    {
      "inputs": [
        {
          "internalType": "uint256",
          "name": "",
          "type": "uint256"
        }
      ],
      "name": "tierStakesCount",
      "outputs": [
        {
          "internalType": "uint256",
          "name": "",
          "type": "uint256"
        }
      ],
      "stateMutability": "view",
      "type": "function"
    },
    {
      "inputs": [],
      "name": "totalSupply",
      "outputs": [
        {
          "internalType": "uint256",
          "name": "",
          "type": "uint256"
        }
      ],
      "stateMutability": "view",
      "type": "function"
    },
    {
      "inputs": [
        {
          "internalType": "address",
          "name": "to",
          "type": "address"
        },
        {
          "internalType": "uint256",
          "name": "value",
          "type": "uint256"
        }
      ],
      "name": "transfer",
      "outputs": [
        {
          "internalType": "bool",
          "name": "",
          "type": "bool"
        }
      ],
      "stateMutability": "nonpayable",
      "type": "function"
    },
    {
      "inputs": [
        {
          "internalType": "address",
          "name": "from",
          "type": "address"
        },
        {
          "internalType": "address",
          "name": "to",
          "type": "address"
        },
        {
          "internalType": "uint256",
          "name": "value",
          "type": "uint256"
        }
      ],
      "name": "transferFrom",
      "outputs": [
        {
          "internalType": "bool",
          "name": "",
          "type": "bool"
        }
      ],
      "stateMutability": "nonpayable",
      "type": "function"
    }
  ],
  "bytecode": "0x6080604052604051806101200160405280600060ff168152602001600060ff168152602001600060ff168152602001600060ff168152602001600060ff168152602001600060ff168152602001600060ff168152602001600060ff168152602001600060ff1681525060089060096200007a92919062000462565b503480156200008857600080fd5b50604051620044b3380380620044b38339818101604052810190620000ae9190620006fe565b83838160039081620000c19190620009ef565b508060049081620000d39190620009ef565b50505060016005819055506200010533670de0b6b3a764000084620000f9919062000b05565b620001a560201b60201c565b732b591e99afe9f32eaa6214f7b7629768c40eeb39600660006101000a81548173ffffffffffffffffffffffffffffffffffffffff021916908373ffffffffffffffffffffffffffffffffffffffff16021790555080600760006101000a81548173ffffffffffffffffffffffffffffffffffffffff021916908373ffffffffffffffffffffffffffffffffffffffff1602179055505050505062000c24565b600073ffffffffffffffffffffffffffffffffffffffff168273ffffffffffffffffffffffffffffffffffffffff16036200021a5760006040517fec442f0500000000000000000000000000000000000000000000000000000000815260040162000211919062000b61565b60405180910390fd5b6200022e600083836200023260201b60201c565b5050565b600073ffffffffffffffffffffffffffffffffffffffff168373ffffffffffffffffffffffffffffffffffffffff1603620002885780600260008282546200027b919062000b7e565b925050819055506200035e565b60008060008573ffffffffffffffffffffffffffffffffffffffff1673ffffffffffffffffffffffffffffffffffffffff1681526020019081526020016000205490508181101562000317578381836040517fe450d38c0000000000000000000000000000000000000000000000000000000081526004016200030e9392919062000bca565b60405180910390fd5b8181036000808673ffffffffffffffffffffffffffffffffffffffff1673ffffffffffffffffffffffffffffffffffffffff16815260200190815260200160002081905550505b600073ffffffffffffffffffffffffffffffffffffffff168273ffffffffffffffffffffffffffffffffffffffff1603620003a95780600260008282540392505081905550620003f6565b806000808473ffffffffffffffffffffffffffffffffffffffff1673ffffffffffffffffffffffffffffffffffffffff168152602001908152602001600020600082825401925050819055505b8173ffffffffffffffffffffffffffffffffffffffff168373ffffffffffffffffffffffffffffffffffffffff167fddf252ad1be2c89b69c2b068fc378daa952ba7f163c4a11628f55a4df523b3ef8360405162000455919062000c07565b60405180910390a3505050565b826009810192821562000499579160200282015b8281111562000498578251829060ff1690559160200191906001019062000476565b5b509050620004a89190620004ac565b5090565b5b80821115620004c7576000816000905550600101620004ad565b5090565b6000604051905090565b600080fd5b600080fd5b600080fd5b600080fd5b6000601f19601f8301169050919050565b7f4e487b7100000000000000000000000000000000000000000000000000000000600052604160045260246000fd5b6200053482620004e9565b810181811067ffffffffffffffff82111715620005565762000555620004fa565b5b80604052505050565b60006200056b620004cb565b905062000579828262000529565b919050565b600067ffffffffffffffff8211156200059c576200059b620004fa565b5b620005a782620004e9565b9050602081019050919050565b60005b83811015620005d4578082015181840152602081019050620005b7565b60008484015250505050565b6000620005f7620005f1846200057e565b6200055f565b905082815260208101848484011115620006165762000615620004e4565b5b62000623848285620005b4565b509392505050565b600082601f830112620006435762000642620004df565b5b815162000655848260208601620005e0565b91505092915050565b6000819050919050565b62000673816200065e565b81146200067f57600080fd5b50565b600081519050620006938162000668565b92915050565b600073ffffffffffffffffffffffffffffffffffffffff82169050919050565b6000620006c68262000699565b9050919050565b620006d881620006b9565b8114620006e457600080fd5b50565b600081519050620006f881620006cd565b92915050565b600080600080608085870312156200071b576200071a620004d5565b5b600085015167ffffffffffffffff8111156200073c576200073b620004da565b5b6200074a878288016200062b565b945050602085015167ffffffffffffffff8111156200076e576200076d620004da565b5b6200077c878288016200062b565b93505060406200078f8782880162000682565b9250506060620007a287828801620006e7565b91505092959194509250565b600081519050919050565b7f4e487b7100000000000000000000000000000000000000000000000000000000600052602260045260246000fd5b600060028204905060018216806200080157607f821691505b602082108103620008175762000816620007b9565b5b50919050565b60008190508160005260206000209050919050565b60006020601f8301049050919050565b600082821b905092915050565b600060088302620008817fffffffffffffffffffffffffffffffffffffffffffffffffffffffffffffffff8262000842565b6200088d868362000842565b95508019841693508086168417925050509392505050565b6000819050919050565b6000620008d0620008ca620008c4846200065e565b620008a5565b6200065e565b9050919050565b6000819050919050565b620008ec83620008af565b62000904620008fb82620008d7565b8484546200084f565b825550505050565b600090565b6200091b6200090c565b62000928818484620008e1565b505050565b5b8181101562000950576200094460008262000911565b6001810190506200092e565b5050565b601f8211156200099f5762000969816200081d565b620009748462000832565b8101602085101562000984578190505b6200099c620009938562000832565b8301826200092d565b50505b505050565b600082821c905092915050565b6000620009c460001984600802620009a4565b1980831691505092915050565b6000620009df8383620009b1565b9150826002028217905092915050565b620009fa82620007ae565b67ffffffffffffffff81111562000a165762000a15620004fa565b5b62000a228254620007e8565b62000a2f82828562000954565b600060209050601f83116001811462000a67576000841562000a52578287015190505b62000a5e8582620009d1565b86555062000ace565b601f19841662000a77866200081d565b60005b8281101562000aa15784890151825560018201915060208501945060208101905062000a7a565b8683101562000ac1578489015162000abd601f891682620009b1565b8355505b6001600288020188555050505b505050505050565b7f4e487b7100000000000000000000000000000000000000000000000000000000600052601160045260246000fd5b600062000b12826200065e565b915062000b1f836200065e565b925082820262000b2f816200065e565b9150828204841483151762000b495762000b4862000ad6565b5b5092915050565b62000b5b81620006b9565b82525050565b600060208201905062000b78600083018462000b50565b92915050565b600062000b8b826200065e565b915062000b98836200065e565b925082820190508082111562000bb35762000bb262000ad6565b5b92915050565b62000bc4816200065e565b82525050565b600060608201905062000be1600083018662000b50565b62000bf0602083018562000bb9565b62000bff604083018462000bb9565b949350505050565b600060208201905062000c1e600083018462000bb9565b92915050565b61387f8062000c346000396000f3fe608060405234801561001057600080fd5b50600436106101da5760003560e01c8063858b4e9811610104578063b097cca9116100a2578063dd62ed3e11610071578063dd62ed3e146105ab578063f6300791146105db578063f6a70d98146105f7578063ff64d81014610627576101da565b8063b097cca9146104fd578063b3d1ea431461052d578063d161cc831461054b578063d605f8231461057b576101da565b8063a8e4efae116100de578063a8e4efae14610475578063a9059cbb14610493578063acee069e146104c3578063ae169a50146104e1576101da565b8063858b4e98146104095780638ca276851461043957806395d89b4114610457576101da565b80633559f4091161017c578063615d34611161014b578063615d34611461036d57806370a082311461039d57806378138c93146103cd5780638141feb3146103eb576101da565b80633559f409146102e75780633c2a7d45146103175780633e6968b61461033357806344c7d6ef14610351576101da565b806318160ddd116101b857806318160ddd1461025d57806323b872dd1461027b57806326986d3f146102ab578063313ce567146102c9576101da565b806306fdde03146101df578063095ea7b3146101fd57806313ed08461461022d575b600080fd5b6101e7610657565b6040516101f4919061250e565b60405180910390f35b610217600480360381019061021291906125c9565b6106e9565b6040516102249190612624565b60405180910390f35b6102476004803603810190610242919061263f565b61070c565b604051610254919061268e565b60405180910390f35b610265610797565b604051610272919061268e565b60405180910390f35b610295600480360381019061029091906126a9565b6107a1565b6040516102a29190612624565b60405180910390f35b6102b36107d0565b6040516102c0919061268e565b60405180910390f35b6102d16107d6565b6040516102de9190612718565b60405180910390f35b61030160048036038101906102fc9190612770565b6107df565b60405161030e919061268e565b60405180910390f35b610331600480360381019061032c91906127b0565b610848565b005b61033b610a60565b604051610348919061268e565b60405180910390f35b61036b600480360381019061036691906127dd565b610af8565b005b610387600480360381019061038291906127b0565b610e09565b6040516103949190612624565b60405180910390f35b6103b760048036038101906103b2919061280a565b610e29565b6040516103c4919061268e565b60405180910390f35b6103d5610e71565b6040516103e2919061268e565b60405180910390f35b6103f3610e76565b604051610400919061268e565b60405180910390f35b610423600480360381019061041e91906127dd565b610e80565b604051610430919061268e565b60405180910390f35b610441610e9b565b60405161044e9190612896565b60405180910390f35b61045f610ec1565b60405161046c919061250e565b60405180910390f35b61047d610f53565b60405161048a919061268e565b60405180910390f35b6104ad60048036038101906104a891906125c9565b610f5a565b6040516104ba9190612624565b60405180910390f35b6104cb610f7d565b6040516104d8919061299e565b60405180910390f35b6104fb60048036038101906104f691906127dd565b6110b5565b005b610517600480360381019061051291906127dd565b6113d5565b604051610524919061268e565b60405180910390f35b6105356114b6565b604051610542919061268e565b60405180910390f35b610565600480360381019061056091906129e5565b611559565b604051610572919061268e565b60405180910390f35b610595600480360381019061059091906127b0565b611642565b6040516105a2919061268e565b60405180910390f35b6105c560048036038101906105c09190612a25565b61165a565b6040516105d2919061268e565b60405180910390f35b6105f560048036038101906105f091906127dd565b6116e1565b005b610611600480360381019061060c91906127b0565b611a42565b60405161061e919061268e565b60405180910390f35b610641600480360381019061063c919061280a565b611ac7565b60405161064e9190612ba2565b60405180910390f35b60606003805461066690612bf3565b80601f016020809104026020016040519081016040528092919081815260200182805461069290612bf3565b80156106df5780601f106106b4576101008083540402835291602001916106df565b820191906000526020600020905b8154815290600101906020018083116106c257829003601f168201915b5050505050905090565b6000806106f4611d24565b9050610701818585611d2c565b600191505092915050565b6000806115b38303610755578284101561073a57600a6509184e72a0006107339190612c53565b9050610750565b60646509184e72a00061074d9190612c53565b90505b610782565b8284101561076b576509184e72a0009050610781565b600a6509184e72a00061077e9190612c53565b90505b5b808461078e9190612c53565b91505092915050565b6000600254905090565b6000806107ac611d24565b90506107b9858285611d3e565b6107c4858585611dd2565b60019150509392505050565b6115b381565b60006012905090565b6000601360008473ffffffffffffffffffffffffffffffffffffffff1673ffffffffffffffffffffffffffffffffffffffff16815260200190815260200160002060008364ffffffffff1664ffffffffff16815260200190815260200160002054905092915050565b610850611ec6565b6000601360003373ffffffffffffffffffffffffffffffffffffffff1673ffffffffffffffffffffffffffffffffffffffff16815260200190815260200160002060008364ffffffffff1664ffffffffff168152602001908152602001600020549050600081116108f6576040517f08c379a00000000000000000000000000000000000000000000000000000000081526004016108ed90612ce1565b60405180910390fd5b600060646082836109079190612c53565b6109119190612d30565b90508061091d33610e29565b101561095e576040517f08c379a000000000000000000000000000000000000000000000000000000000815260040161095590612dd3565b60405180910390fd5b6000601360003373ffffffffffffffffffffffffffffffffffffffff1673ffffffffffffffffffffffffffffffffffffffff16815260200190815260200160002060008564ffffffffff1664ffffffffff16815260200190815260200160002081905550600082826109d09190612df3565b90506109dc3383611f0c565b6109fa73e46334e08525cff61efdfe8c43cc4f27dbe068af82611f8e565b8364ffffffffff163373ffffffffffffffffffffffffffffffffffffffff167fa2f1bb5f5593af93a3d7fce57db843cb0acec5888672a849aafc0c76c87f7a328484604051610a4a929190612e27565b60405180910390a3505050610a5d612010565b50565b6000600660009054906101000a900473ffffffffffffffffffffffffffffffffffffffff1673ffffffffffffffffffffffffffffffffffffffff16635c9302c96040518163ffffffff1660e01b8152600401602060405180830381865afa158015610acf573d6000803e3d6000fd5b505050506040513d601f19601f82011682018060405250810190610af39190612e65565b905090565b610b00611ec6565b600080600660009054906101000a900473ffffffffffffffffffffffffffffffffffffffff1673ffffffffffffffffffffffffffffffffffffffff16632607443b33856040518363ffffffff1660e01b8152600401610b60929190612ea1565b60e060405180830381865afa158015610b7d573d6000803e3d6000fd5b505050506040513d601f19601f82011682018060405250810190610ba19190612f4c565b505050505091509150620c826c8264ffffffffff1611610bf6576040517f08c379a0000000000000000000000000000000000000000000000000000000008152600401610bed90613060565b60405180910390fd5b601260008364ffffffffff1664ffffffffff16815260200190815260200160002060009054906101000a900460ff1615610c65576040517f08c379a0000000000000000000000000000000000000000000000000000000008152600401610c5c906130f2565b60405180910390fd5b6000610c7b8268ffffffffffffffffff166113d5565b905060098110610cc0576040517f08c379a0000000000000000000000000000000000000000000000000000000008152600401610cb790613184565b60405180910390fd5b600260088260098110610cd657610cd56131a4565b5b015410610d18576040517f08c379a0000000000000000000000000000000000000000000000000000000008152600401610d0f90613245565b60405180910390fd5b60088160098110610d2c57610d2b6131a4565b5b016000815480929190610d3e90613265565b919050555080601160008564ffffffffff1664ffffffffff168152602001908152602001600020819055506001601260008564ffffffffff1664ffffffffff16815260200190815260200160002060006101000a81548160ff0219169083151502179055503373ffffffffffffffffffffffffffffffffffffffff168364ffffffffff167f3d092186e5bcb98a4e6b00281884a0530862dde56d5e003e93138f5350fc18028484604051610df39291906132de565b60405180910390a3505050610e06612010565b50565b60126020528060005260406000206000915054906101000a900460ff1681565b60008060008373ffffffffffffffffffffffffffffffffffffffff1673ffffffffffffffffffffffffffffffffffffffff168152602001908152602001600020549050919050565b600281565b6509184e72a00081565b60088160098110610e9057600080fd5b016000915090505481565b600760009054906101000a900473ffffffffffffffffffffffffffffffffffffffff1681565b606060048054610ed090612bf3565b80601f0160208091040260200160405190810160405280929190818152602001828054610efc90612bf3565b8015610f495780601f10610f1e57610100808354040283529160200191610f49565b820191906000526020600020905b815481529060010190602001808311610f2c57829003601f168201915b5050505050905090565b620c826c81565b600080610f65611d24565b9050610f72818585611dd2565b600191505092915050565b610f85612416565b6000806000806000806000600660009054906101000a900473ffffffffffffffffffffffffffffffffffffffff1673ffffffffffffffffffffffffffffffffffffffff16632607443b3060006040518363ffffffff1660e01b8152600401610fee929190613342565b60e060405180830381865afa15801561100b573d6000803e3d6000fd5b505050506040513d601f19601f8201168201806040525081019061102f9190612f4c565b809750819850829950839a50849b50859c50869d50505050505050506040518060e001604052808864ffffffffff1681526020018768ffffffffffffffffff1681526020018668ffffffffffffffffff1681526020018561ffff1681526020018461ffff1681526020018361ffff16815260200182151581525097505050505050505090565b6110bd611ec6565b600080600080600660009054906101000a900473ffffffffffffffffffffffffffffffffffffffff1673ffffffffffffffffffffffffffffffffffffffff16632607443b33876040518363ffffffff1660e01b8152600401611120929190612ea1565b60e060405180830381865afa15801561113d573d6000803e3d6000fd5b505050506040513d601f19601f820116820180604052508101906111619190612f4c565b50509450945050935093506000601360003373ffffffffffffffffffffffffffffffffffffffff1673ffffffffffffffffffffffffffffffffffffffff16815260200190815260200160002060008664ffffffffff1664ffffffffff168152602001908152602001600020541461120d576040517f08c379a0000000000000000000000000000000000000000000000000000000008152600401611204906133dd565b60405180910390fd5b64174876e8008368ffffffffffffffffff161015611260576040517f08c379a00000000000000000000000000000000000000000000000000000000081526004016112579061346f565b60405180910390fd5b620c826c8464ffffffffff1611156112e157601260008564ffffffffff1664ffffffffff16815260200190815260200160002060009054906101000a900460ff166112e0576040517f08c379a00000000000000000000000000000000000000000000000000000000081526004016112d790613501565b60405180910390fd5b5b60006112ed8383611559565b905060006112ff828461ffff1661070c565b905080601360003373ffffffffffffffffffffffffffffffffffffffff1673ffffffffffffffffffffffffffffffffffffffff16815260200190815260200160002060008864ffffffffff1664ffffffffff1681526020019081526020016000208190555061136e3382611f8e565b8564ffffffffff163373ffffffffffffffffffffffffffffffffffffffff167f20c6e198c8dd3ef0f2fc10b9e569aeec0d58d3c63ae4730c9afa1e9198a2e0ef836040516113bc919061268e565b60405180910390a35050505050506113d2612010565b50565b600064174876e8008210156113ed57600990506114b1565b64e8d4a5100082101561140357600090506114b1565b6509184e72a00082101561141a57600190506114b1565b655af3107a400082101561143157600290506114b1565b66038d7ea4c6800082101561144957600390506114b1565b662386f26fc1000082101561146157600490506114b1565b67016345785d8a000082101561147a57600590506114b1565b670de0b6b3a764000082101561149357600690506114b1565b678ac7230489e800008210156114ac57600790506114b1565b600890505b919050565b6000600760009054906101000a900473ffffffffffffffffffffffffffffffffffffffff1673ffffffffffffffffffffffffffffffffffffffff166370a08231306040518263ffffffff1660e01b81526004016115139190613521565b602060405180830381865afa158015611530573d6000803e3d6000fd5b505050506040513d601f19601f820116820180604052508101906115549190612e65565b905090565b600080600660009054906101000a900473ffffffffffffffffffffffffffffffffffffffff1673ffffffffffffffffffffffffffffffffffffffff16635c9302c96040518163ffffffff1660e01b8152600401602060405180830381865afa1580156115c9573d6000803e3d6000fd5b505050506040513d601f19601f820116820180604052508101906115ed9190612e65565b905082846115fb919061353c565b61ffff168110611612578261ffff1691505061163c565b8361ffff16811115611636578361ffff168161162e9190612df3565b91505061163c565b60009150505b92915050565b60116020528060005260406000206000915090505481565b6000600160008473ffffffffffffffffffffffffffffffffffffffff1673ffffffffffffffffffffffffffffffffffffffff16815260200190815260200160002060008373ffffffffffffffffffffffffffffffffffffffff1673ffffffffffffffffffffffffffffffffffffffff16815260200190815260200160002054905092915050565b6116e9611ec6565b6000811161172c576040517f08c379a0000000000000000000000000000000000000000000000000000000008152600401611723906135be565b60405180910390fd5b6000600760009054906101000a900473ffffffffffffffffffffffffffffffffffffffff1673ffffffffffffffffffffffffffffffffffffffff166370a08231336040518263ffffffff1660e01b81526004016117899190613521565b602060405180830381865afa1580156117a6573d6000803e3d6000fd5b505050506040513d601f19601f820116820180604052508101906117ca9190612e65565b90506000600760009054906101000a900473ffffffffffffffffffffffffffffffffffffffff1673ffffffffffffffffffffffffffffffffffffffff1663dd62ed3e33306040518363ffffffff1660e01b815260040161182b9291906135de565b602060405180830381865afa158015611848573d6000803e3d6000fd5b505050506040513d601f19601f8201168201806040525081019061186c9190612e65565b9050828210156118b1576040517f08c379a00000000000000000000000000000000000000000000000000000000081526004016118a890613653565b60405180910390fd5b828110156118f4576040517f08c379a00000000000000000000000000000000000000000000000000000000081526004016118eb906136bf565b60405180910390fd5b6000600760009054906101000a900473ffffffffffffffffffffffffffffffffffffffff1673ffffffffffffffffffffffffffffffffffffffff166323b872dd3361dead876040518463ffffffff1660e01b8152600401611957939291906136df565b6020604051808303816000875af1158015611976573d6000803e3d6000fd5b505050506040513d601f19601f8201168201806040525081019061199a9190613716565b9050806119dc576040517f08c379a00000000000000000000000000000000000000000000000000000000081526004016119d39061378f565b60405180910390fd5b6119e63385611f8e565b3373ffffffffffffffffffffffffffffffffffffffff167f879978d8838aeda40db0d77f74d3678f12e38bbefa993b42a92379bccdf44dda85604051611a2c919061268e565b60405180910390a2505050611a3f612010565b50565b600080601360003373ffffffffffffffffffffffffffffffffffffffff1673ffffffffffffffffffffffffffffffffffffffff16815260200190815260200160002060008464ffffffffff1664ffffffffff1681526020019081526020016000205490506064608282611ab59190612c53565b611abf9190612d30565b915050919050565b60606000600660009054906101000a900473ffffffffffffffffffffffffffffffffffffffff1673ffffffffffffffffffffffffffffffffffffffff166333060d90846040518263ffffffff1660e01b8152600401611b269190613521565b602060405180830381865afa158015611b43573d6000803e3d6000fd5b505050506040513d601f19601f82011682018060405250810190611b679190612e65565b905060008167ffffffffffffffff811115611b8557611b846137af565b5b604051908082528060200260200182016040528015611bbe57816020015b611bab612416565b815260200190600190039081611ba35790505b50905060005b82811015611d19576000806000806000806000600660009054906101000a900473ffffffffffffffffffffffffffffffffffffffff1673ffffffffffffffffffffffffffffffffffffffff16632607443b8d8a6040518363ffffffff1660e01b8152600401611c34929190612ea1565b60e060405180830381865afa158015611c51573d6000803e3d6000fd5b505050506040513d601f19601f82011682018060405250810190611c759190612f4c565b96509650965096509650965096506040518060e001604052808864ffffffffff1681526020018768ffffffffffffffffff1681526020018668ffffffffffffffffff1681526020018561ffff1681526020018461ffff1681526020018361ffff168152602001821515815250898981518110611cf457611cf36131a4565b5b6020026020010181905250505050505050508080611d1190613265565b915050611bc4565b508092505050919050565b600033905090565b611d39838383600161201a565b505050565b6000611d4a848461165a565b90507fffffffffffffffffffffffffffffffffffffffffffffffffffffffffffffffff8114611dcc5781811015611dbc578281836040517ffb8f41b2000000000000000000000000000000000000000000000000000000008152600401611db3939291906137de565b60405180910390fd5b611dcb8484848403600061201a565b5b50505050565b600073ffffffffffffffffffffffffffffffffffffffff168373ffffffffffffffffffffffffffffffffffffffff1603611e445760006040517f96c6fd1e000000000000000000000000000000000000000000000000000000008152600401611e3b9190613521565b60405180910390fd5b600073ffffffffffffffffffffffffffffffffffffffff168273ffffffffffffffffffffffffffffffffffffffff1603611eb65760006040517fec442f05000000000000000000000000000000000000000000000000000000008152600401611ead9190613521565b60405180910390fd5b611ec18383836121f1565b505050565b600260055403611f02576040517f3ee5aeb500000000000000000000000000000000000000000000000000000000815260040160405180910390fd5b6002600581905550565b600073ffffffffffffffffffffffffffffffffffffffff168273ffffffffffffffffffffffffffffffffffffffff1603611f7e5760006040517f96c6fd1e000000000000000000000000000000000000000000000000000000008152600401611f759190613521565b60405180910390fd5b611f8a826000836121f1565b5050565b600073ffffffffffffffffffffffffffffffffffffffff168273ffffffffffffffffffffffffffffffffffffffff16036120005760006040517fec442f05000000000000000000000000000000000000000000000000000000008152600401611ff79190613521565b60405180910390fd5b61200c600083836121f1565b5050565b6001600581905550565b600073ffffffffffffffffffffffffffffffffffffffff168473ffffffffffffffffffffffffffffffffffffffff160361208c5760006040517fe602df050000000000000000000000000000000000000000000000000000000081526004016120839190613521565b60405180910390fd5b600073ffffffffffffffffffffffffffffffffffffffff168373ffffffffffffffffffffffffffffffffffffffff16036120fe5760006040517f94280d620000000000000000000000000000000000000000000000000000000081526004016120f59190613521565b60405180910390fd5b81600160008673ffffffffffffffffffffffffffffffffffffffff1673ffffffffffffffffffffffffffffffffffffffff16815260200190815260200160002060008573ffffffffffffffffffffffffffffffffffffffff1673ffffffffffffffffffffffffffffffffffffffff1681526020019081526020016000208190555080156121eb578273ffffffffffffffffffffffffffffffffffffffff168473ffffffffffffffffffffffffffffffffffffffff167f8c5be1e5ebec7d5bd14f71427d1e84f3dd0314c0f7b2291e5b200ac8c7c3b925846040516121e2919061268e565b60405180910390a35b50505050565b600073ffffffffffffffffffffffffffffffffffffffff168373ffffffffffffffffffffffffffffffffffffffff16036122435780600260008282546122379190613815565b92505081905550612316565b60008060008573ffffffffffffffffffffffffffffffffffffffff1673ffffffffffffffffffffffffffffffffffffffff168152602001908152602001600020549050818110156122cf578381836040517fe450d38c0000000000000000000000000000000000000000000000000000000081526004016122c6939291906137de565b60405180910390fd5b8181036000808673ffffffffffffffffffffffffffffffffffffffff1673ffffffffffffffffffffffffffffffffffffffff16815260200190815260200160002081905550505b600073ffffffffffffffffffffffffffffffffffffffff168273ffffffffffffffffffffffffffffffffffffffff160361235f57806002600082825403925050819055506123ac565b806000808473ffffffffffffffffffffffffffffffffffffffff1673ffffffffffffffffffffffffffffffffffffffff168152602001908152602001600020600082825401925050819055505b8173ffffffffffffffffffffffffffffffffffffffff168373ffffffffffffffffffffffffffffffffffffffff167fddf252ad1be2c89b69c2b068fc378daa952ba7f163c4a11628f55a4df523b3ef83604051612409919061268e565b60405180910390a3505050565b6040518060e00160405280600064ffffffffff168152602001600068ffffffffffffffffff168152602001600068ffffffffffffffffff168152602001600061ffff168152602001600061ffff168152602001600061ffff1681526020016000151581525090565b600081519050919050565b600082825260208201905092915050565b60005b838110156124b857808201518184015260208101905061249d565b60008484015250505050565b6000601f19601f8301169050919050565b60006124e08261247e565b6124ea8185612489565b93506124fa81856020860161249a565b612503816124c4565b840191505092915050565b6000602082019050818103600083015261252881846124d5565b905092915050565b600080fd5b600073ffffffffffffffffffffffffffffffffffffffff82169050919050565b600061256082612535565b9050919050565b61257081612555565b811461257b57600080fd5b50565b60008135905061258d81612567565b92915050565b6000819050919050565b6125a681612593565b81146125b157600080fd5b50565b6000813590506125c38161259d565b92915050565b600080604083850312156125e0576125df612530565b5b60006125ee8582860161257e565b92505060206125ff858286016125b4565b9150509250929050565b60008115159050919050565b61261e81612609565b82525050565b60006020820190506126396000830184612615565b92915050565b6000806040838503121561265657612655612530565b5b6000612664858286016125b4565b9250506020612675858286016125b4565b9150509250929050565b61268881612593565b82525050565b60006020820190506126a3600083018461267f565b92915050565b6000806000606084860312156126c2576126c1612530565b5b60006126d08682870161257e565b93505060206126e18682870161257e565b92505060406126f2868287016125b4565b9150509250925092565b600060ff82169050919050565b612712816126fc565b82525050565b600060208201905061272d6000830184612709565b92915050565b600064ffffffffff82169050919050565b61274d81612733565b811461275857600080fd5b50565b60008135905061276a81612744565b92915050565b6000806040838503121561278757612786612530565b5b60006127958582860161257e565b92505060206127a68582860161275b565b9150509250929050565b6000602082840312156127c6576127c5612530565b5b60006127d48482850161275b565b91505092915050565b6000602082840312156127f3576127f2612530565b5b6000612801848285016125b4565b91505092915050565b6000602082840312156128205761281f612530565b5b600061282e8482850161257e565b91505092915050565b6000819050919050565b600061285c61285761285284612535565b612837565b612535565b9050919050565b600061286e82612841565b9050919050565b600061288082612863565b9050919050565b61289081612875565b82525050565b60006020820190506128ab6000830184612887565b92915050565b6128ba81612733565b82525050565b600068ffffffffffffffffff82169050919050565b6128de816128c0565b82525050565b600061ffff82169050919050565b6128fb816128e4565b82525050565b61290a81612609565b82525050565b60e08201600082015161292660008501826128b1565b50602082015161293960208501826128d5565b50604082015161294c60408501826128d5565b50606082015161295f60608501826128f2565b50608082015161297260808501826128f2565b5060a082015161298560a08501826128f2565b5060c082015161299860c0850182612901565b50505050565b600060e0820190506129b36000830184612910565b92915050565b6129c2816128e4565b81146129cd57600080fd5b50565b6000813590506129df816129b9565b92915050565b600080604083850312156129fc576129fb612530565b5b6000612a0a858286016129d0565b9250506020612a1b858286016129d0565b9150509250929050565b60008060408385031215612a3c57612a3b612530565b5b6000612a4a8582860161257e565b9250506020612a5b8582860161257e565b9150509250929050565b600081519050919050565b600082825260208201905092915050565b6000819050602082019050919050565b60e082016000820151612aa760008501826128b1565b506020820151612aba60208501826128d5565b506040820151612acd60408501826128d5565b506060820151612ae060608501826128f2565b506080820151612af360808501826128f2565b5060a0820151612b0660a08501826128f2565b5060c0820151612b1960c0850182612901565b50505050565b6000612b2b8383612a91565b60e08301905092915050565b6000602082019050919050565b6000612b4f82612a65565b612b598185612a70565b9350612b6483612a81565b8060005b83811015612b95578151612b7c8882612b1f565b9750612b8783612b37565b925050600181019050612b68565b5085935050505092915050565b60006020820190508181036000830152612bbc8184612b44565b905092915050565b7f4e487b7100000000000000000000000000000000000000000000000000000000600052602260045260246000fd5b60006002820490506001821680612c0b57607f821691505b602082108103612c1e57612c1d612bc4565b5b50919050565b7f4e487b7100000000000000000000000000000000000000000000000000000000600052601160045260246000fd5b6000612c5e82612593565b9150612c6983612593565b9250828202612c7781612593565b91508282048414831517612c8e57612c8d612c24565b5b5092915050565b7f4e6f2072657761726420636c61696d656420666f722074686973207374616b65600082015250565b6000612ccb602083612489565b9150612cd682612c95565b602082019050919050565b60006020820190508181036000830152612cfa81612cbe565b9050919050565b7f4e487b7100000000000000000000000000000000000000000000000000000000600052601260045260246000fd5b6000612d3b82612593565b9150612d4683612593565b925082612d5657612d55612d01565b5b828204905092915050565b7f496e73756666696369656e742062616c616e636520746f2072657475726e207260008201527f6577617264000000000000000000000000000000000000000000000000000000602082015250565b6000612dbd602583612489565b9150612dc882612d61565b604082019050919050565b60006020820190508181036000830152612dec81612db0565b9050919050565b6000612dfe82612593565b9150612e0983612593565b9250828203905081811115612e2157612e20612c24565b5b92915050565b6000604082019050612e3c600083018561267f565b612e49602083018461267f565b9392505050565b600081519050612e5f8161259d565b92915050565b600060208284031215612e7b57612e7a612530565b5b6000612e8984828501612e50565b91505092915050565b612e9b81612555565b82525050565b6000604082019050612eb66000830185612e92565b612ec3602083018461267f565b9392505050565b600081519050612ed981612744565b92915050565b612ee8816128c0565b8114612ef357600080fd5b50565b600081519050612f0581612edf565b92915050565b600081519050612f1a816129b9565b92915050565b612f2981612609565b8114612f3457600080fd5b50565b600081519050612f4681612f20565b92915050565b600080600080600080600060e0888a031215612f6b57612f6a612530565b5b6000612f798a828b01612eca565b9750506020612f8a8a828b01612ef6565b9650506040612f9b8a828b01612ef6565b9550506060612fac8a828b01612f0b565b9450506080612fbd8a828b01612f0b565b93505060a0612fce8a828b01612f0b565b92505060c0612fdf8a828b01612f37565b91505092959891949750929550565b7f536176616e743a205374616b65204944206d757374206265206265796f6e642060008201527f70726f74656374696f6e20494400000000000000000000000000000000000000602082015250565b600061304a602d83612489565b915061305582612fee565b604082019050919050565b600060208201905081810360008301526130798161303d565b9050919050565b7f536176616e743a205374616b652068617320616c7265616479206265656e206360008201527f6c61696d65640000000000000000000000000000000000000000000000000000602082015250565b60006130dc602683612489565b91506130e782613080565b604082019050919050565b6000602082019050818103600083015261310b816130cf565b9050919050565b7f536176616e743a205374616b6520616d6f756e7420646f65736e2774206d656560008201527f74207469657220726571756972656d656e74732e000000000000000000000000602082015250565b600061316e603483612489565b915061317982613112565b604082019050919050565b6000602082019050818103600083015261319d81613161565b9050919050565b7f4e487b7100000000000000000000000000000000000000000000000000000000600052603260045260246000fd5b7f536176616e743a205468697320746965722069732066756c6c7920737562736360008201527f7269626564000000000000000000000000000000000000000000000000000000602082015250565b600061322f602583612489565b915061323a826131d3565b604082019050919050565b6000602082019050818103600083015261325e81613222565b9050919050565b600061327082612593565b91507fffffffffffffffffffffffffffffffffffffffffffffffffffffffffffffffff82036132a2576132a1612c24565b5b600182019050919050565b60006132c86132c36132be846128c0565b612837565b612593565b9050919050565b6132d8816132ad565b82525050565b60006040820190506132f360008301856132cf565b613300602083018461267f565b9392505050565b6000819050919050565b600061332c61332761332284613307565b612837565b612593565b9050919050565b61333c81613311565b82525050565b60006040820190506133576000830185612e92565b6133646020830184613333565b9392505050565b7f52657761726420616c726561647920636c61696d656420666f7220746869732060008201527f7374616b65000000000000000000000000000000000000000000000000000000602082015250565b60006133c7602583612489565b91506133d28261336b565b604082019050919050565b600060208201905081810360008301526133f6816133ba565b9050919050565b7f414c4c20486578205374616b6573206d7573742067726561746572207468616e60008201527f206f7220657175616c20746f2031303030204865780000000000000000000000602082015250565b6000613459603583612489565b9150613464826133fd565b604082019050919050565b600060208201905081810360008301526134888161344c565b9050919050565b7f4e6577207374616b6573206d757374206265207265676973746572656420746f60008201527f20636c61696d2072657761726473000000000000000000000000000000000000602082015250565b60006134eb602e83612489565b91506134f68261348f565b604082019050919050565b6000602082019050818103600083015261351a816134de565b9050919050565b60006020820190506135366000830184612e92565b92915050565b6000613547826128e4565b9150613552836128e4565b9250828201905061ffff81111561356c5761356b612c24565b5b92915050565b7f416d6f756e74206d7573742062652067726561746572207468616e2030000000600082015250565b60006135a8601d83612489565b91506135b382613572565b602082019050919050565b600060208201905081810360008301526135d78161359b565b9050919050565b60006040820190506135f36000830185612e92565b6136006020830184612e92565b9392505050565b7f496e73756666696369656e74204858522062616c616e63650000000000000000600082015250565b600061363d601883612489565b915061364882613607565b602082019050919050565b6000602082019050818103600083015261366c81613630565b9050919050565b7f496e73756666696369656e7420616c6c6f77616e636500000000000000000000600082015250565b60006136a9601683612489565b91506136b482613673565b602082019050919050565b600060208201905081810360008301526136d88161369c565b9050919050565b60006060820190506136f46000830186612e92565b6137016020830185612e92565b61370e604083018461267f565b949350505050565b60006020828403121561372c5761372b612530565b5b600061373a84828501612f37565b91505092915050565b7f5472616e73666572206661696c65640000000000000000000000000000000000600082015250565b6000613779600f83612489565b915061378482613743565b602082019050919050565b600060208201905081810360008301526137a88161376c565b9050919050565b7f4e487b7100000000000000000000000000000000000000000000000000000000600052604160045260246000fd5b60006060820190506137f36000830186612e92565b613800602083018561267f565b61380d604083018461267f565b949350505050565b600061382082612593565b915061382b83612593565b925082820190508082111561384357613842612c24565b5b9291505056fea2646970667358221220fd230fdae0c8e5df572bd82c94439698519498339c4a1828fab7c7bfe5fecb0164736f6c63430008140033",
  "linkReferences": {},
  "deployedLinkReferences": {}
}