{
  "_format": "hh-sol-artifact-1",
  "contractName": "Savant",
  "sourceName": "contracts/Savant.sol",
  "abi": [
    {
      "inputs": [
        {
          "internalType": "string",
          "name": "_name",
          "type": "string"
        },
        {
          "internalType": "string",
          "name": "_symbol",
          "type": "string"
        },
        {
          "internalType": "uint256",
          "name": "_supply",
          "type": "uint256"
        },
        {
          "internalType": "address",
          "name": "_hxrTokenAddress",
          "type": "address"
        }
      ],
      "stateMutability": "nonpayable",
      "type": "constructor"
    },
    {
      "inputs": [
        {
          "internalType": "address",
          "name": "spender",
          "type": "address"
        },
        {
          "internalType": "uint256",
          "name": "allowance",
          "type": "uint256"
        },
        {
          "internalType": "uint256",
          "name": "needed",
          "type": "uint256"
        }
      ],
      "name": "ERC20InsufficientAllowance",
      "type": "error"
    },
    {
      "inputs": [
        {
          "internalType": "address",
          "name": "sender",
          "type": "address"
        },
        {
          "internalType": "uint256",
          "name": "balance",
          "type": "uint256"
        },
        {
          "internalType": "uint256",
          "name": "needed",
          "type": "uint256"
        }
      ],
      "name": "ERC20InsufficientBalance",
      "type": "error"
    },
    {
      "inputs": [
        {
          "internalType": "address",
          "name": "approver",
          "type": "address"
        }
      ],
      "name": "ERC20InvalidApprover",
      "type": "error"
    },
    {
      "inputs": [
        {
          "internalType": "address",
          "name": "receiver",
          "type": "address"
        }
      ],
      "name": "ERC20InvalidReceiver",
      "type": "error"
    },
    {
      "inputs": [
        {
          "internalType": "address",
          "name": "sender",
          "type": "address"
        }
      ],
      "name": "ERC20InvalidSender",
      "type": "error"
    },
    {
      "inputs": [
        {
          "internalType": "address",
          "name": "spender",
          "type": "address"
        }
      ],
      "name": "ERC20InvalidSpender",
      "type": "error"
    },
    {
      "inputs": [],
      "name": "ReentrancyGuardReentrantCall",
      "type": "error"
    },
    {
      "anonymous": false,
      "inputs": [
        {
          "indexed": true,
          "internalType": "address",
          "name": "owner",
          "type": "address"
        },
        {
          "indexed": true,
          "internalType": "address",
          "name": "spender",
          "type": "address"
        },
        {
          "indexed": false,
          "internalType": "uint256",
          "name": "value",
          "type": "uint256"
        }
      ],
      "name": "Approval",
      "type": "event"
    },
    {
      "anonymous": false,
      "inputs": [
        {
          "indexed": true,
          "internalType": "address",
          "name": "user",
          "type": "address"
        },
        {
          "indexed": false,
          "internalType": "uint256",
          "name": "amount",
          "type": "uint256"
        }
      ],
      "name": "HexRewardsExchangedForSavant",
      "type": "event"
    },
    {
      "anonymous": false,
      "inputs": [
        {
          "indexed": true,
          "internalType": "address",
          "name": "user",
          "type": "address"
        },
        {
          "indexed": true,
          "internalType": "uint40",
          "name": "stakeId",
          "type": "uint40"
        },
        {
          "indexed": false,
          "internalType": "uint256",
          "name": "reward",
          "type": "uint256"
        }
      ],
      "name": "RewardClaimed",
      "type": "event"
    },
    {
      "anonymous": false,
      "inputs": [
        {
          "indexed": true,
          "internalType": "address",
          "name": "user",
          "type": "address"
        },
        {
          "indexed": true,
          "internalType": "uint40",
          "name": "stakeId",
          "type": "uint40"
        },
        {
          "indexed": false,
          "internalType": "uint256",
          "name": "returnAmount",
          "type": "uint256"
        },
        {
          "indexed": false,
          "internalType": "uint256",
          "name": "fee",
          "type": "uint256"
        }
      ],
      "name": "RewardReturned",
      "type": "event"
    },
    {
      "anonymous": false,
      "inputs": [
        {
          "indexed": true,
          "internalType": "uint40",
          "name": "stakeId",
          "type": "uint40"
        },
        {
          "indexed": true,
          "internalType": "address",
          "name": "user",
          "type": "address"
        },
        {
          "indexed": false,
          "internalType": "uint256",
          "name": "amount",
          "type": "uint256"
        },
        {
          "indexed": false,
          "internalType": "uint256",
          "name": "tierIndex",
          "type": "uint256"
        }
      ],
      "name": "StakeClaimed",
      "type": "event"
    },
    {
      "anonymous": false,
      "inputs": [
        {
          "indexed": true,
          "internalType": "address",
          "name": "from",
          "type": "address"
        },
        {
          "indexed": true,
          "internalType": "address",
          "name": "to",
          "type": "address"
        },
        {
          "indexed": false,
          "internalType": "uint256",
          "name": "value",
          "type": "uint256"
        }
      ],
      "name": "Transfer",
      "type": "event"
    },
    {
      "inputs": [],
      "name": "MAX_STAKES_PER_TIER",
      "outputs": [
        {
          "internalType": "uint256",
          "name": "",
          "type": "uint256"
        }
      ],
      "stateMutability": "view",
      "type": "function"
    },
    {
      "inputs": [],
      "name": "MAX_STAKE_DAYS",
      "outputs": [
        {
          "internalType": "uint256",
          "name": "",
          "type": "uint256"
        }
      ],
      "stateMutability": "view",
      "type": "function"
    },
    {
      "inputs": [],
      "name": "REWARD_PER_DAY",
      "outputs": [
        {
          "internalType": "uint256",
          "name": "",
          "type": "uint256"
        }
      ],
      "stateMutability": "view",
      "type": "function"
    },
    {
      "inputs": [],
      "name": "STAKEID_PROTECTION",
      "outputs": [
        {
          "internalType": "uint256",
          "name": "",
          "type": "uint256"
        }
      ],
      "stateMutability": "view",
      "type": "function"
    },
    {
      "inputs": [
        {
          "internalType": "address",
          "name": "owner",
          "type": "address"
        },
        {
          "internalType": "address",
          "name": "spender",
          "type": "address"
        }
      ],
      "name": "allowance",
      "outputs": [
        {
          "internalType": "uint256",
          "name": "",
          "type": "uint256"
        }
      ],
      "stateMutability": "view",
      "type": "function"
    },
    {
      "inputs": [
        {
          "internalType": "address",
          "name": "spender",
          "type": "address"
        },
        {
          "internalType": "uint256",
          "name": "value",
          "type": "uint256"
        }
      ],
      "name": "approve",
      "outputs": [
        {
          "internalType": "bool",
          "name": "",
          "type": "bool"
        }
      ],
      "stateMutability": "nonpayable",
      "type": "function"
    },
    {
      "inputs": [
        {
          "internalType": "address",
          "name": "account",
          "type": "address"
        }
      ],
      "name": "balanceOf",
      "outputs": [
        {
          "internalType": "uint256",
          "name": "",
          "type": "uint256"
        }
      ],
      "stateMutability": "view",
      "type": "function"
    },
    {
      "inputs": [
        {
          "internalType": "uint16",
          "name": "lockedDay",
          "type": "uint16"
        },
        {
          "internalType": "uint16",
          "name": "stakedDays",
          "type": "uint16"
        }
      ],
      "name": "calculateConsumedDays",
      "outputs": [
        {
          "internalType": "uint256",
          "name": "",
          "type": "uint256"
        }
      ],
      "stateMutability": "view",
      "type": "function"
    },
    {
      "inputs": [
        {
          "internalType": "uint40",
          "name": "stakeId",
          "type": "uint40"
        }
      ],
      "name": "calculateReturnAmount",
      "outputs": [
        {
          "internalType": "uint256",
          "name": "",
          "type": "uint256"
        }
      ],
      "stateMutability": "view",
      "type": "function"
    },
    {
      "inputs": [
        {
          "internalType": "uint256",
          "name": "consumedDays",
          "type": "uint256"
        },
        {
          "internalType": "uint256",
          "name": "stakedDays",
          "type": "uint256"
        }
      ],
      "name": "calculateReward",
      "outputs": [
        {
          "internalType": "uint256",
          "name": "",
          "type": "uint256"
        }
      ],
      "stateMutability": "pure",
      "type": "function"
    },
    {
      "inputs": [
        {
          "internalType": "uint256",
          "name": "stakeIndex",
          "type": "uint256"
        }
      ],
      "name": "claimReward",
      "outputs": [],
      "stateMutability": "nonpayable",
      "type": "function"
    },
    {
      "inputs": [
        {
          "internalType": "uint256",
          "name": "stakeIndex",
          "type": "uint256"
        }
      ],
      "name": "claimStake",
      "outputs": [],
      "stateMutability": "nonpayable",
      "type": "function"
    },
    {
      "inputs": [],
      "name": "decimals",
      "outputs": [
        {
          "internalType": "uint8",
          "name": "",
          "type": "uint8"
        }
      ],
      "stateMutability": "view",
      "type": "function"
    },
    {
      "inputs": [
        {
          "internalType": "uint256",
          "name": "amount",
          "type": "uint256"
        }
      ],
      "name": "determineTier",
      "outputs": [
        {
          "internalType": "uint256",
          "name": "",
          "type": "uint256"
        }
      ],
      "stateMutability": "pure",
      "type": "function"
    },
    {
      "inputs": [
        {
          "internalType": "uint256",
          "name": "_amount",
          "type": "uint256"
        }
      ],
      "name": "exchangeHexRewardsForSavant",
      "outputs": [],
      "stateMutability": "nonpayable",
      "type": "function"
    },
    {
      "inputs": [
        {
          "internalType": "address",
          "name": "account",
          "type": "address"
        },
        {
          "internalType": "uint40",
          "name": "stakeId",
          "type": "uint40"
        }
      ],
      "name": "getClaimedReward",
      "outputs": [
        {
          "internalType": "uint256",
          "name": "",
          "type": "uint256"
        }
      ],
      "stateMutability": "view",
      "type": "function"
    },
    {
      "inputs": [],
      "name": "getCurrentDay",
      "outputs": [
        {
          "internalType": "uint256",
          "name": "",
          "type": "uint256"
        }
      ],
      "stateMutability": "view",
      "type": "function"
    },
    {
      "inputs": [],
      "name": "getSavantContractHXRBalance",
      "outputs": [
        {
          "internalType": "uint256",
          "name": "",
          "type": "uint256"
        }
      ],
      "stateMutability": "view",
      "type": "function"
    },
    {
      "inputs": [
        {
          "internalType": "address",
          "name": "account",
          "type": "address"
        }
      ],
      "name": "getStakeList",
      "outputs": [
        {
          "components": [
            {
              "internalType": "uint40",
              "name": "stakeId",
              "type": "uint40"
            },
            {
              "internalType": "uint72",
              "name": "stakedHearts",
              "type": "uint72"
            },
            {
              "internalType": "uint72",
              "name": "stakeShares",
              "type": "uint72"
            },
            {
              "internalType": "uint16",
              "name": "lockedDay",
              "type": "uint16"
            },
            {
              "internalType": "uint16",
              "name": "stakedDays",
              "type": "uint16"
            },
            {
              "internalType": "uint16",
              "name": "unlockedDay",
              "type": "uint16"
            },
            {
              "internalType": "bool",
              "name": "isAutoStake",
              "type": "bool"
            }
          ],
          "internalType": "struct HEXStake[]",
          "name": "",
          "type": "tuple[]"
        }
      ],
      "stateMutability": "view",
      "type": "function"
    },
    {
      "inputs": [],
      "name": "hxrToken",
      "outputs": [
        {
          "internalType": "contract IERC20",
          "name": "",
          "type": "address"
        }
      ],
      "stateMutability": "view",
      "type": "function"
    },
    {
      "inputs": [
        {
          "internalType": "uint40",
          "name": "",
          "type": "uint40"
        }
      ],
      "name": "isStakeRegistered",
      "outputs": [
        {
          "internalType": "bool",
          "name": "",
          "type": "bool"
        }
      ],
      "stateMutability": "view",
      "type": "function"
    },
    {
      "inputs": [],
      "name": "name",
      "outputs": [
        {
          "internalType": "string",
          "name": "",
          "type": "string"
        }
      ],
      "stateMutability": "view",
      "type": "function"
    },
    {
      "inputs": [
        {
          "internalType": "uint40",
          "name": "stakeId",
          "type": "uint40"
        }
      ],
      "name": "returnReward",
      "outputs": [],
      "stateMutability": "nonpayable",
      "type": "function"
    },
    {
      "inputs": [],
      "name": "stakeDataFetch",
      "outputs": [
        {
          "components": [
            {
              "internalType": "uint40",
              "name": "stakeId",
              "type": "uint40"
            },
            {
              "internalType": "uint72",
              "name": "stakedHearts",
              "type": "uint72"
            },
            {
              "internalType": "uint72",
              "name": "stakeShares",
              "type": "uint72"
            },
            {
              "internalType": "uint16",
              "name": "lockedDay",
              "type": "uint16"
            },
            {
              "internalType": "uint16",
              "name": "stakedDays",
              "type": "uint16"
            },
            {
              "internalType": "uint16",
              "name": "unlockedDay",
              "type": "uint16"
            },
            {
              "internalType": "bool",
              "name": "isAutoStake",
              "type": "bool"
            }
          ],
          "internalType": "struct HEXStake",
          "name": "",
          "type": "tuple"
        }
      ],
      "stateMutability": "view",
      "type": "function"
    },
    {
      "inputs": [
        {
          "internalType": "uint40",
          "name": "",
          "type": "uint40"
        }
      ],
      "name": "stakeTierIndex",
      "outputs": [
        {
          "internalType": "uint256",
          "name": "",
          "type": "uint256"
        }
      ],
      "stateMutability": "view",
      "type": "function"
    },
    {
      "inputs": [],
      "name": "symbol",
      "outputs": [
        {
          "internalType": "string",
          "name": "",
          "type": "string"
        }
      ],
      "stateMutability": "view",
      "type": "function"
    },
    {
      "inputs": [
        {
          "internalType": "uint256",
          "name": "",
          "type": "uint256"
        }
      ],
      "name": "tierStakesCount",
      "outputs": [
        {
          "internalType": "uint256",
          "name": "",
          "type": "uint256"
        }
      ],
      "stateMutability": "view",
      "type": "function"
    },
    {
      "inputs": [],
      "name": "totalSupply",
      "outputs": [
        {
          "internalType": "uint256",
          "name": "",
          "type": "uint256"
        }
      ],
      "stateMutability": "view",
      "type": "function"
    },
    {
      "inputs": [
        {
          "internalType": "address",
          "name": "to",
          "type": "address"
        },
        {
          "internalType": "uint256",
          "name": "value",
          "type": "uint256"
        }
      ],
      "name": "transfer",
      "outputs": [
        {
          "internalType": "bool",
          "name": "",
          "type": "bool"
        }
      ],
      "stateMutability": "nonpayable",
      "type": "function"
    },
    {
      "inputs": [
        {
          "internalType": "address",
          "name": "from",
          "type": "address"
        },
        {
          "internalType": "address",
          "name": "to",
          "type": "address"
        },
        {
          "internalType": "uint256",
          "name": "value",
          "type": "uint256"
        }
      ],
      "name": "transferFrom",
      "outputs": [
        {
          "internalType": "bool",
          "name": "",
          "type": "bool"
        }
      ],
      "stateMutability": "nonpayable",
      "type": "function"
    }
  ],
  "bytecode": "0x6080604052604051806101200160405280600060ff168152602001600060ff168152602001600060ff168152602001600060ff168152602001600060ff168152602001600060ff168152602001600060ff168152602001600060ff168152602001600060ff1681525060089060096200007a92919062000462565b503480156200008857600080fd5b50604051620044b5380380620044b58339818101604052810190620000ae9190620006fe565b83838160039081620000c19190620009ef565b508060049081620000d39190620009ef565b50505060016005819055506200010533670de0b6b3a764000084620000f9919062000b05565b620001a560201b60201c565b732b591e99afe9f32eaa6214f7b7629768c40eeb39600660006101000a81548173ffffffffffffffffffffffffffffffffffffffff021916908373ffffffffffffffffffffffffffffffffffffffff16021790555080600760006101000a81548173ffffffffffffffffffffffffffffffffffffffff021916908373ffffffffffffffffffffffffffffffffffffffff1602179055505050505062000c24565b600073ffffffffffffffffffffffffffffffffffffffff168273ffffffffffffffffffffffffffffffffffffffff16036200021a5760006040517fec442f0500000000000000000000000000000000000000000000000000000000815260040162000211919062000b61565b60405180910390fd5b6200022e600083836200023260201b60201c565b5050565b600073ffffffffffffffffffffffffffffffffffffffff168373ffffffffffffffffffffffffffffffffffffffff1603620002885780600260008282546200027b919062000b7e565b925050819055506200035e565b60008060008573ffffffffffffffffffffffffffffffffffffffff1673ffffffffffffffffffffffffffffffffffffffff1681526020019081526020016000205490508181101562000317578381836040517fe450d38c0000000000000000000000000000000000000000000000000000000081526004016200030e9392919062000bca565b60405180910390fd5b8181036000808673ffffffffffffffffffffffffffffffffffffffff1673ffffffffffffffffffffffffffffffffffffffff16815260200190815260200160002081905550505b600073ffffffffffffffffffffffffffffffffffffffff168273ffffffffffffffffffffffffffffffffffffffff1603620003a95780600260008282540392505081905550620003f6565b806000808473ffffffffffffffffffffffffffffffffffffffff1673ffffffffffffffffffffffffffffffffffffffff168152602001908152602001600020600082825401925050819055505b8173ffffffffffffffffffffffffffffffffffffffff168373ffffffffffffffffffffffffffffffffffffffff167fddf252ad1be2c89b69c2b068fc378daa952ba7f163c4a11628f55a4df523b3ef8360405162000455919062000c07565b60405180910390a3505050565b826009810192821562000499579160200282015b8281111562000498578251829060ff1690559160200191906001019062000476565b5b509050620004a89190620004ac565b5090565b5b80821115620004c7576000816000905550600101620004ad565b5090565b6000604051905090565b600080fd5b600080fd5b600080fd5b600080fd5b6000601f19601f8301169050919050565b7f4e487b7100000000000000000000000000000000000000000000000000000000600052604160045260246000fd5b6200053482620004e9565b810181811067ffffffffffffffff82111715620005565762000555620004fa565b5b80604052505050565b60006200056b620004cb565b905062000579828262000529565b919050565b600067ffffffffffffffff8211156200059c576200059b620004fa565b5b620005a782620004e9565b9050602081019050919050565b60005b83811015620005d4578082015181840152602081019050620005b7565b60008484015250505050565b6000620005f7620005f1846200057e565b6200055f565b905082815260208101848484011115620006165762000615620004e4565b5b62000623848285620005b4565b509392505050565b600082601f830112620006435762000642620004df565b5b815162000655848260208601620005e0565b91505092915050565b6000819050919050565b62000673816200065e565b81146200067f57600080fd5b50565b600081519050620006938162000668565b92915050565b600073ffffffffffffffffffffffffffffffffffffffff82169050919050565b6000620006c68262000699565b9050919050565b620006d881620006b9565b8114620006e457600080fd5b50565b600081519050620006f881620006cd565b92915050565b600080600080608085870312156200071b576200071a620004d5565b5b600085015167ffffffffffffffff8111156200073c576200073b620004da565b5b6200074a878288016200062b565b945050602085015167ffffffffffffffff8111156200076e576200076d620004da565b5b6200077c878288016200062b565b93505060406200078f8782880162000682565b9250506060620007a287828801620006e7565b91505092959194509250565b600081519050919050565b7f4e487b7100000000000000000000000000000000000000000000000000000000600052602260045260246000fd5b600060028204905060018216806200080157607f821691505b602082108103620008175762000816620007b9565b5b50919050565b60008190508160005260206000209050919050565b60006020601f8301049050919050565b600082821b905092915050565b600060088302620008817fffffffffffffffffffffffffffffffffffffffffffffffffffffffffffffffff8262000842565b6200088d868362000842565b95508019841693508086168417925050509392505050565b6000819050919050565b6000620008d0620008ca620008c4846200065e565b620008a5565b6200065e565b9050919050565b6000819050919050565b620008ec83620008af565b62000904620008fb82620008d7565b8484546200084f565b825550505050565b600090565b6200091b6200090c565b62000928818484620008e1565b505050565b5b8181101562000950576200094460008262000911565b6001810190506200092e565b5050565b601f8211156200099f5762000969816200081d565b620009748462000832565b8101602085101562000984578190505b6200099c620009938562000832565b8301826200092d565b50505b505050565b600082821c905092915050565b6000620009c460001984600802620009a4565b1980831691505092915050565b6000620009df8383620009b1565b9150826002028217905092915050565b620009fa82620007ae565b67ffffffffffffffff81111562000a165762000a15620004fa565b5b62000a228254620007e8565b62000a2f82828562000954565b600060209050601f83116001811462000a67576000841562000a52578287015190505b62000a5e8582620009d1565b86555062000ace565b601f19841662000a77866200081d565b60005b8281101562000aa15784890151825560018201915060208501945060208101905062000a7a565b8683101562000ac1578489015162000abd601f891682620009b1565b8355505b6001600288020188555050505b505050505050565b7f4e487b7100000000000000000000000000000000000000000000000000000000600052601160045260246000fd5b600062000b12826200065e565b915062000b1f836200065e565b925082820262000b2f816200065e565b9150828204841483151762000b495762000b4862000ad6565b5b5092915050565b62000b5b81620006b9565b82525050565b600060208201905062000b78600083018462000b50565b92915050565b600062000b8b826200065e565b915062000b98836200065e565b925082820190508082111562000bb35762000bb262000ad6565b5b92915050565b62000bc4816200065e565b82525050565b600060608201905062000be1600083018662000b50565b62000bf0602083018562000bb9565b62000bff604083018462000bb9565b949350505050565b600060208201905062000c1e600083018462000bb9565b92915050565b6138818062000c346000396000f3fe608060405234801561001057600080fd5b50600436106101da5760003560e01c8063858b4e9811610104578063b097cca9116100a2578063dd62ed3e11610071578063dd62ed3e146105ab578063f6300791146105db578063f6a70d98146105f7578063ff64d81014610627576101da565b8063b097cca9146104fd578063b3d1ea431461052d578063d161cc831461054b578063d605f8231461057b576101da565b8063a8e4efae116100de578063a8e4efae14610475578063a9059cbb14610493578063acee069e146104c3578063ae169a50146104e1576101da565b8063858b4e98146104095780638ca276851461043957806395d89b4114610457576101da565b80633559f4091161017c578063615d34611161014b578063615d34611461036d57806370a082311461039d57806378138c93146103cd5780638141feb3146103eb576101da565b80633559f409146102e75780633c2a7d45146103175780633e6968b61461033357806344c7d6ef14610351576101da565b806318160ddd116101b857806318160ddd1461025d57806323b872dd1461027b57806326986d3f146102ab578063313ce567146102c9576101da565b806306fdde03146101df578063095ea7b3146101fd57806313ed08461461022d575b600080fd5b6101e7610657565b6040516101f49190612510565b60405180910390f35b610217600480360381019061021291906125cb565b6106e9565b6040516102249190612626565b60405180910390f35b61024760048036038101906102429190612641565b61070c565b6040516102549190612690565b60405180910390f35b610265610797565b6040516102729190612690565b60405180910390f35b610295600480360381019061029091906126ab565b6107a1565b6040516102a29190612626565b60405180910390f35b6102b36107d0565b6040516102c09190612690565b60405180910390f35b6102d16107d6565b6040516102de919061271a565b60405180910390f35b61030160048036038101906102fc9190612772565b6107df565b60405161030e9190612690565b60405180910390f35b610331600480360381019061032c91906127b2565b610848565b005b61033b610a60565b6040516103489190612690565b60405180910390f35b61036b600480360381019061036691906127df565b610af8565b005b610387600480360381019061038291906127b2565b610e0a565b6040516103949190612626565b60405180910390f35b6103b760048036038101906103b2919061280c565b610e2a565b6040516103c49190612690565b60405180910390f35b6103d5610e72565b6040516103e29190612690565b60405180910390f35b6103f3610e78565b6040516104009190612690565b60405180910390f35b610423600480360381019061041e91906127df565b610e82565b6040516104309190612690565b60405180910390f35b610441610e9d565b60405161044e9190612898565b60405180910390f35b61045f610ec3565b60405161046c9190612510565b60405180910390f35b61047d610f55565b60405161048a9190612690565b60405180910390f35b6104ad60048036038101906104a891906125cb565b610f5c565b6040516104ba9190612626565b60405180910390f35b6104cb610f7f565b6040516104d891906129a0565b60405180910390f35b6104fb60048036038101906104f691906127df565b6110b7565b005b610517600480360381019061051291906127df565b6113d7565b6040516105249190612690565b60405180910390f35b6105356114b8565b6040516105429190612690565b60405180910390f35b610565600480360381019061056091906129e7565b61155b565b6040516105729190612690565b60405180910390f35b610595600480360381019061059091906127b2565b611644565b6040516105a29190612690565b60405180910390f35b6105c560048036038101906105c09190612a27565b61165c565b6040516105d29190612690565b60405180910390f35b6105f560048036038101906105f091906127df565b6116e3565b005b610611600480360381019061060c91906127b2565b611a44565b60405161061e9190612690565b60405180910390f35b610641600480360381019061063c919061280c565b611ac9565b60405161064e9190612ba4565b60405180910390f35b60606003805461066690612bf5565b80601f016020809104026020016040519081016040528092919081815260200182805461069290612bf5565b80156106df5780601f106106b4576101008083540402835291602001916106df565b820191906000526020600020905b8154815290600101906020018083116106c257829003601f168201915b5050505050905090565b6000806106f4611d26565b9050610701818585611d2e565b600191505092915050565b6000806115b38303610755578284101561073a57600a6509184e72a0006107339190612c55565b9050610750565b60646509184e72a00061074d9190612c55565b90505b610782565b8284101561076b576509184e72a0009050610781565b600a6509184e72a00061077e9190612c55565b90505b5b808461078e9190612c55565b91505092915050565b6000600254905090565b6000806107ac611d26565b90506107b9858285611d40565b6107c4858585611dd4565b60019150509392505050565b6115b381565b60006012905090565b6000601360008473ffffffffffffffffffffffffffffffffffffffff1673ffffffffffffffffffffffffffffffffffffffff16815260200190815260200160002060008364ffffffffff1664ffffffffff16815260200190815260200160002054905092915050565b610850611ec8565b6000601360003373ffffffffffffffffffffffffffffffffffffffff1673ffffffffffffffffffffffffffffffffffffffff16815260200190815260200160002060008364ffffffffff1664ffffffffff168152602001908152602001600020549050600081116108f6576040517f08c379a00000000000000000000000000000000000000000000000000000000081526004016108ed90612ce3565b60405180910390fd5b600060646082836109079190612c55565b6109119190612d32565b90508061091d33610e2a565b101561095e576040517f08c379a000000000000000000000000000000000000000000000000000000000815260040161095590612dd5565b60405180910390fd5b6000601360003373ffffffffffffffffffffffffffffffffffffffff1673ffffffffffffffffffffffffffffffffffffffff16815260200190815260200160002060008564ffffffffff1664ffffffffff16815260200190815260200160002081905550600082826109d09190612df5565b90506109dc3383611f0e565b6109fa73e46334e08525cff61efdfe8c43cc4f27dbe068af82611f90565b8364ffffffffff163373ffffffffffffffffffffffffffffffffffffffff167fa2f1bb5f5593af93a3d7fce57db843cb0acec5888672a849aafc0c76c87f7a328484604051610a4a929190612e29565b60405180910390a3505050610a5d612012565b50565b6000600660009054906101000a900473ffffffffffffffffffffffffffffffffffffffff1673ffffffffffffffffffffffffffffffffffffffff16635c9302c96040518163ffffffff1660e01b8152600401602060405180830381865afa158015610acf573d6000803e3d6000fd5b505050506040513d601f19601f82011682018060405250810190610af39190612e67565b905090565b610b00611ec8565b600080600660009054906101000a900473ffffffffffffffffffffffffffffffffffffffff1673ffffffffffffffffffffffffffffffffffffffff16632607443b33856040518363ffffffff1660e01b8152600401610b60929190612ea3565b60e060405180830381865afa158015610b7d573d6000803e3d6000fd5b505050506040513d601f19601f82011682018060405250810190610ba19190612f4e565b505050505091509150620c826c8264ffffffffff1611610bf6576040517f08c379a0000000000000000000000000000000000000000000000000000000008152600401610bed90613062565b60405180910390fd5b601260008364ffffffffff1664ffffffffff16815260200190815260200160002060009054906101000a900460ff1615610c65576040517f08c379a0000000000000000000000000000000000000000000000000000000008152600401610c5c906130f4565b60405180910390fd5b6000610c7b8268ffffffffffffffffff166113d7565b905060098110610cc0576040517f08c379a0000000000000000000000000000000000000000000000000000000008152600401610cb790613186565b60405180910390fd5b61017160088260098110610cd757610cd66131a6565b5b015410610d19576040517f08c379a0000000000000000000000000000000000000000000000000000000008152600401610d1090613247565b60405180910390fd5b60088160098110610d2d57610d2c6131a6565b5b016000815480929190610d3f90613267565b919050555080601160008564ffffffffff1664ffffffffff168152602001908152602001600020819055506001601260008564ffffffffff1664ffffffffff16815260200190815260200160002060006101000a81548160ff0219169083151502179055503373ffffffffffffffffffffffffffffffffffffffff168364ffffffffff167f3d092186e5bcb98a4e6b00281884a0530862dde56d5e003e93138f5350fc18028484604051610df49291906132e0565b60405180910390a3505050610e07612012565b50565b60126020528060005260406000206000915054906101000a900460ff1681565b60008060008373ffffffffffffffffffffffffffffffffffffffff1673ffffffffffffffffffffffffffffffffffffffff168152602001908152602001600020549050919050565b61017181565b6509184e72a00081565b60088160098110610e9257600080fd5b016000915090505481565b600760009054906101000a900473ffffffffffffffffffffffffffffffffffffffff1681565b606060048054610ed290612bf5565b80601f0160208091040260200160405190810160405280929190818152602001828054610efe90612bf5565b8015610f4b5780601f10610f2057610100808354040283529160200191610f4b565b820191906000526020600020905b815481529060010190602001808311610f2e57829003601f168201915b5050505050905090565b620c826c81565b600080610f67611d26565b9050610f74818585611dd4565b600191505092915050565b610f87612418565b6000806000806000806000600660009054906101000a900473ffffffffffffffffffffffffffffffffffffffff1673ffffffffffffffffffffffffffffffffffffffff16632607443b3060006040518363ffffffff1660e01b8152600401610ff0929190613344565b60e060405180830381865afa15801561100d573d6000803e3d6000fd5b505050506040513d601f19601f820116820180604052508101906110319190612f4e565b809750819850829950839a50849b50859c50869d50505050505050506040518060e001604052808864ffffffffff1681526020018768ffffffffffffffffff1681526020018668ffffffffffffffffff1681526020018561ffff1681526020018461ffff1681526020018361ffff16815260200182151581525097505050505050505090565b6110bf611ec8565b600080600080600660009054906101000a900473ffffffffffffffffffffffffffffffffffffffff1673ffffffffffffffffffffffffffffffffffffffff16632607443b33876040518363ffffffff1660e01b8152600401611122929190612ea3565b60e060405180830381865afa15801561113f573d6000803e3d6000fd5b505050506040513d601f19601f820116820180604052508101906111639190612f4e565b50509450945050935093506000601360003373ffffffffffffffffffffffffffffffffffffffff1673ffffffffffffffffffffffffffffffffffffffff16815260200190815260200160002060008664ffffffffff1664ffffffffff168152602001908152602001600020541461120f576040517f08c379a0000000000000000000000000000000000000000000000000000000008152600401611206906133df565b60405180910390fd5b64174876e8008368ffffffffffffffffff161015611262576040517f08c379a000000000000000000000000000000000000000000000000000000000815260040161125990613471565b60405180910390fd5b620c826c8464ffffffffff1611156112e357601260008564ffffffffff1664ffffffffff16815260200190815260200160002060009054906101000a900460ff166112e2576040517f08c379a00000000000000000000000000000000000000000000000000000000081526004016112d990613503565b60405180910390fd5b5b60006112ef838361155b565b90506000611301828461ffff1661070c565b905080601360003373ffffffffffffffffffffffffffffffffffffffff1673ffffffffffffffffffffffffffffffffffffffff16815260200190815260200160002060008864ffffffffff1664ffffffffff168152602001908152602001600020819055506113703382611f90565b8564ffffffffff163373ffffffffffffffffffffffffffffffffffffffff167f20c6e198c8dd3ef0f2fc10b9e569aeec0d58d3c63ae4730c9afa1e9198a2e0ef836040516113be9190612690565b60405180910390a35050505050506113d4612012565b50565b600064174876e8008210156113ef57600990506114b3565b64e8d4a5100082101561140557600090506114b3565b6509184e72a00082101561141c57600190506114b3565b655af3107a400082101561143357600290506114b3565b66038d7ea4c6800082101561144b57600390506114b3565b662386f26fc1000082101561146357600490506114b3565b67016345785d8a000082101561147c57600590506114b3565b670de0b6b3a764000082101561149557600690506114b3565b678ac7230489e800008210156114ae57600790506114b3565b600890505b919050565b6000600760009054906101000a900473ffffffffffffffffffffffffffffffffffffffff1673ffffffffffffffffffffffffffffffffffffffff166370a08231306040518263ffffffff1660e01b81526004016115159190613523565b602060405180830381865afa158015611532573d6000803e3d6000fd5b505050506040513d601f19601f820116820180604052508101906115569190612e67565b905090565b600080600660009054906101000a900473ffffffffffffffffffffffffffffffffffffffff1673ffffffffffffffffffffffffffffffffffffffff16635c9302c96040518163ffffffff1660e01b8152600401602060405180830381865afa1580156115cb573d6000803e3d6000fd5b505050506040513d601f19601f820116820180604052508101906115ef9190612e67565b905082846115fd919061353e565b61ffff168110611614578261ffff1691505061163e565b8361ffff16811115611638578361ffff16816116309190612df5565b91505061163e565b60009150505b92915050565b60116020528060005260406000206000915090505481565b6000600160008473ffffffffffffffffffffffffffffffffffffffff1673ffffffffffffffffffffffffffffffffffffffff16815260200190815260200160002060008373ffffffffffffffffffffffffffffffffffffffff1673ffffffffffffffffffffffffffffffffffffffff16815260200190815260200160002054905092915050565b6116eb611ec8565b6000811161172e576040517f08c379a0000000000000000000000000000000000000000000000000000000008152600401611725906135c0565b60405180910390fd5b6000600760009054906101000a900473ffffffffffffffffffffffffffffffffffffffff1673ffffffffffffffffffffffffffffffffffffffff166370a08231336040518263ffffffff1660e01b815260040161178b9190613523565b602060405180830381865afa1580156117a8573d6000803e3d6000fd5b505050506040513d601f19601f820116820180604052508101906117cc9190612e67565b90506000600760009054906101000a900473ffffffffffffffffffffffffffffffffffffffff1673ffffffffffffffffffffffffffffffffffffffff1663dd62ed3e33306040518363ffffffff1660e01b815260040161182d9291906135e0565b602060405180830381865afa15801561184a573d6000803e3d6000fd5b505050506040513d601f19601f8201168201806040525081019061186e9190612e67565b9050828210156118b3576040517f08c379a00000000000000000000000000000000000000000000000000000000081526004016118aa90613655565b60405180910390fd5b828110156118f6576040517f08c379a00000000000000000000000000000000000000000000000000000000081526004016118ed906136c1565b60405180910390fd5b6000600760009054906101000a900473ffffffffffffffffffffffffffffffffffffffff1673ffffffffffffffffffffffffffffffffffffffff166323b872dd3361dead876040518463ffffffff1660e01b8152600401611959939291906136e1565b6020604051808303816000875af1158015611978573d6000803e3d6000fd5b505050506040513d601f19601f8201168201806040525081019061199c9190613718565b9050806119de576040517f08c379a00000000000000000000000000000000000000000000000000000000081526004016119d590613791565b60405180910390fd5b6119e83385611f90565b3373ffffffffffffffffffffffffffffffffffffffff167f879978d8838aeda40db0d77f74d3678f12e38bbefa993b42a92379bccdf44dda85604051611a2e9190612690565b60405180910390a2505050611a41612012565b50565b600080601360003373ffffffffffffffffffffffffffffffffffffffff1673ffffffffffffffffffffffffffffffffffffffff16815260200190815260200160002060008464ffffffffff1664ffffffffff1681526020019081526020016000205490506064608282611ab79190612c55565b611ac19190612d32565b915050919050565b60606000600660009054906101000a900473ffffffffffffffffffffffffffffffffffffffff1673ffffffffffffffffffffffffffffffffffffffff166333060d90846040518263ffffffff1660e01b8152600401611b289190613523565b602060405180830381865afa158015611b45573d6000803e3d6000fd5b505050506040513d601f19601f82011682018060405250810190611b699190612e67565b905060008167ffffffffffffffff811115611b8757611b866137b1565b5b604051908082528060200260200182016040528015611bc057816020015b611bad612418565b815260200190600190039081611ba55790505b50905060005b82811015611d1b576000806000806000806000600660009054906101000a900473ffffffffffffffffffffffffffffffffffffffff1673ffffffffffffffffffffffffffffffffffffffff16632607443b8d8a6040518363ffffffff1660e01b8152600401611c36929190612ea3565b60e060405180830381865afa158015611c53573d6000803e3d6000fd5b505050506040513d601f19601f82011682018060405250810190611c779190612f4e565b96509650965096509650965096506040518060e001604052808864ffffffffff1681526020018768ffffffffffffffffff1681526020018668ffffffffffffffffff1681526020018561ffff1681526020018461ffff1681526020018361ffff168152602001821515815250898981518110611cf657611cf56131a6565b5b6020026020010181905250505050505050508080611d1390613267565b915050611bc6565b508092505050919050565b600033905090565b611d3b838383600161201c565b505050565b6000611d4c848461165c565b90507fffffffffffffffffffffffffffffffffffffffffffffffffffffffffffffffff8114611dce5781811015611dbe578281836040517ffb8f41b2000000000000000000000000000000000000000000000000000000008152600401611db5939291906137e0565b60405180910390fd5b611dcd8484848403600061201c565b5b50505050565b600073ffffffffffffffffffffffffffffffffffffffff168373ffffffffffffffffffffffffffffffffffffffff1603611e465760006040517f96c6fd1e000000000000000000000000000000000000000000000000000000008152600401611e3d9190613523565b60405180910390fd5b600073ffffffffffffffffffffffffffffffffffffffff168273ffffffffffffffffffffffffffffffffffffffff1603611eb85760006040517fec442f05000000000000000000000000000000000000000000000000000000008152600401611eaf9190613523565b60405180910390fd5b611ec38383836121f3565b505050565b600260055403611f04576040517f3ee5aeb500000000000000000000000000000000000000000000000000000000815260040160405180910390fd5b6002600581905550565b600073ffffffffffffffffffffffffffffffffffffffff168273ffffffffffffffffffffffffffffffffffffffff1603611f805760006040517f96c6fd1e000000000000000000000000000000000000000000000000000000008152600401611f779190613523565b60405180910390fd5b611f8c826000836121f3565b5050565b600073ffffffffffffffffffffffffffffffffffffffff168273ffffffffffffffffffffffffffffffffffffffff16036120025760006040517fec442f05000000000000000000000000000000000000000000000000000000008152600401611ff99190613523565b60405180910390fd5b61200e600083836121f3565b5050565b6001600581905550565b600073ffffffffffffffffffffffffffffffffffffffff168473ffffffffffffffffffffffffffffffffffffffff160361208e5760006040517fe602df050000000000000000000000000000000000000000000000000000000081526004016120859190613523565b60405180910390fd5b600073ffffffffffffffffffffffffffffffffffffffff168373ffffffffffffffffffffffffffffffffffffffff16036121005760006040517f94280d620000000000000000000000000000000000000000000000000000000081526004016120f79190613523565b60405180910390fd5b81600160008673ffffffffffffffffffffffffffffffffffffffff1673ffffffffffffffffffffffffffffffffffffffff16815260200190815260200160002060008573ffffffffffffffffffffffffffffffffffffffff1673ffffffffffffffffffffffffffffffffffffffff1681526020019081526020016000208190555080156121ed578273ffffffffffffffffffffffffffffffffffffffff168473ffffffffffffffffffffffffffffffffffffffff167f8c5be1e5ebec7d5bd14f71427d1e84f3dd0314c0f7b2291e5b200ac8c7c3b925846040516121e49190612690565b60405180910390a35b50505050565b600073ffffffffffffffffffffffffffffffffffffffff168373ffffffffffffffffffffffffffffffffffffffff16036122455780600260008282546122399190613817565b92505081905550612318565b60008060008573ffffffffffffffffffffffffffffffffffffffff1673ffffffffffffffffffffffffffffffffffffffff168152602001908152602001600020549050818110156122d1578381836040517fe450d38c0000000000000000000000000000000000000000000000000000000081526004016122c8939291906137e0565b60405180910390fd5b8181036000808673ffffffffffffffffffffffffffffffffffffffff1673ffffffffffffffffffffffffffffffffffffffff16815260200190815260200160002081905550505b600073ffffffffffffffffffffffffffffffffffffffff168273ffffffffffffffffffffffffffffffffffffffff160361236157806002600082825403925050819055506123ae565b806000808473ffffffffffffffffffffffffffffffffffffffff1673ffffffffffffffffffffffffffffffffffffffff168152602001908152602001600020600082825401925050819055505b8173ffffffffffffffffffffffffffffffffffffffff168373ffffffffffffffffffffffffffffffffffffffff167fddf252ad1be2c89b69c2b068fc378daa952ba7f163c4a11628f55a4df523b3ef8360405161240b9190612690565b60405180910390a3505050565b6040518060e00160405280600064ffffffffff168152602001600068ffffffffffffffffff168152602001600068ffffffffffffffffff168152602001600061ffff168152602001600061ffff168152602001600061ffff1681526020016000151581525090565b600081519050919050565b600082825260208201905092915050565b60005b838110156124ba57808201518184015260208101905061249f565b60008484015250505050565b6000601f19601f8301169050919050565b60006124e282612480565b6124ec818561248b565b93506124fc81856020860161249c565b612505816124c6565b840191505092915050565b6000602082019050818103600083015261252a81846124d7565b905092915050565b600080fd5b600073ffffffffffffffffffffffffffffffffffffffff82169050919050565b600061256282612537565b9050919050565b61257281612557565b811461257d57600080fd5b50565b60008135905061258f81612569565b92915050565b6000819050919050565b6125a881612595565b81146125b357600080fd5b50565b6000813590506125c58161259f565b92915050565b600080604083850312156125e2576125e1612532565b5b60006125f085828601612580565b9250506020612601858286016125b6565b9150509250929050565b60008115159050919050565b6126208161260b565b82525050565b600060208201905061263b6000830184612617565b92915050565b6000806040838503121561265857612657612532565b5b6000612666858286016125b6565b9250506020612677858286016125b6565b9150509250929050565b61268a81612595565b82525050565b60006020820190506126a56000830184612681565b92915050565b6000806000606084860312156126c4576126c3612532565b5b60006126d286828701612580565b93505060206126e386828701612580565b92505060406126f4868287016125b6565b9150509250925092565b600060ff82169050919050565b612714816126fe565b82525050565b600060208201905061272f600083018461270b565b92915050565b600064ffffffffff82169050919050565b61274f81612735565b811461275a57600080fd5b50565b60008135905061276c81612746565b92915050565b6000806040838503121561278957612788612532565b5b600061279785828601612580565b92505060206127a88582860161275d565b9150509250929050565b6000602082840312156127c8576127c7612532565b5b60006127d68482850161275d565b91505092915050565b6000602082840312156127f5576127f4612532565b5b6000612803848285016125b6565b91505092915050565b60006020828403121561282257612821612532565b5b600061283084828501612580565b91505092915050565b6000819050919050565b600061285e61285961285484612537565b612839565b612537565b9050919050565b600061287082612843565b9050919050565b600061288282612865565b9050919050565b61289281612877565b82525050565b60006020820190506128ad6000830184612889565b92915050565b6128bc81612735565b82525050565b600068ffffffffffffffffff82169050919050565b6128e0816128c2565b82525050565b600061ffff82169050919050565b6128fd816128e6565b82525050565b61290c8161260b565b82525050565b60e08201600082015161292860008501826128b3565b50602082015161293b60208501826128d7565b50604082015161294e60408501826128d7565b50606082015161296160608501826128f4565b50608082015161297460808501826128f4565b5060a082015161298760a08501826128f4565b5060c082015161299a60c0850182612903565b50505050565b600060e0820190506129b56000830184612912565b92915050565b6129c4816128e6565b81146129cf57600080fd5b50565b6000813590506129e1816129bb565b92915050565b600080604083850312156129fe576129fd612532565b5b6000612a0c858286016129d2565b9250506020612a1d858286016129d2565b9150509250929050565b60008060408385031215612a3e57612a3d612532565b5b6000612a4c85828601612580565b9250506020612a5d85828601612580565b9150509250929050565b600081519050919050565b600082825260208201905092915050565b6000819050602082019050919050565b60e082016000820151612aa960008501826128b3565b506020820151612abc60208501826128d7565b506040820151612acf60408501826128d7565b506060820151612ae260608501826128f4565b506080820151612af560808501826128f4565b5060a0820151612b0860a08501826128f4565b5060c0820151612b1b60c0850182612903565b50505050565b6000612b2d8383612a93565b60e08301905092915050565b6000602082019050919050565b6000612b5182612a67565b612b5b8185612a72565b9350612b6683612a83565b8060005b83811015612b97578151612b7e8882612b21565b9750612b8983612b39565b925050600181019050612b6a565b5085935050505092915050565b60006020820190508181036000830152612bbe8184612b46565b905092915050565b7f4e487b7100000000000000000000000000000000000000000000000000000000600052602260045260246000fd5b60006002820490506001821680612c0d57607f821691505b602082108103612c2057612c1f612bc6565b5b50919050565b7f4e487b7100000000000000000000000000000000000000000000000000000000600052601160045260246000fd5b6000612c6082612595565b9150612c6b83612595565b9250828202612c7981612595565b91508282048414831517612c9057612c8f612c26565b5b5092915050565b7f4e6f2072657761726420636c61696d656420666f722074686973207374616b65600082015250565b6000612ccd60208361248b565b9150612cd882612c97565b602082019050919050565b60006020820190508181036000830152612cfc81612cc0565b9050919050565b7f4e487b7100000000000000000000000000000000000000000000000000000000600052601260045260246000fd5b6000612d3d82612595565b9150612d4883612595565b925082612d5857612d57612d03565b5b828204905092915050565b7f496e73756666696369656e742062616c616e636520746f2072657475726e207260008201527f6577617264000000000000000000000000000000000000000000000000000000602082015250565b6000612dbf60258361248b565b9150612dca82612d63565b604082019050919050565b60006020820190508181036000830152612dee81612db2565b9050919050565b6000612e0082612595565b9150612e0b83612595565b9250828203905081811115612e2357612e22612c26565b5b92915050565b6000604082019050612e3e6000830185612681565b612e4b6020830184612681565b9392505050565b600081519050612e618161259f565b92915050565b600060208284031215612e7d57612e7c612532565b5b6000612e8b84828501612e52565b91505092915050565b612e9d81612557565b82525050565b6000604082019050612eb86000830185612e94565b612ec56020830184612681565b9392505050565b600081519050612edb81612746565b92915050565b612eea816128c2565b8114612ef557600080fd5b50565b600081519050612f0781612ee1565b92915050565b600081519050612f1c816129bb565b92915050565b612f2b8161260b565b8114612f3657600080fd5b50565b600081519050612f4881612f22565b92915050565b600080600080600080600060e0888a031215612f6d57612f6c612532565b5b6000612f7b8a828b01612ecc565b9750506020612f8c8a828b01612ef8565b9650506040612f9d8a828b01612ef8565b9550506060612fae8a828b01612f0d565b9450506080612fbf8a828b01612f0d565b93505060a0612fd08a828b01612f0d565b92505060c0612fe18a828b01612f39565b91505092959891949750929550565b7f536176616e743a205374616b65204944206d757374206265206265796f6e642060008201527f70726f74656374696f6e20494400000000000000000000000000000000000000602082015250565b600061304c602d8361248b565b915061305782612ff0565b604082019050919050565b6000602082019050818103600083015261307b8161303f565b9050919050565b7f536176616e743a205374616b652068617320616c7265616479206265656e206360008201527f6c61696d65640000000000000000000000000000000000000000000000000000602082015250565b60006130de60268361248b565b91506130e982613082565b604082019050919050565b6000602082019050818103600083015261310d816130d1565b9050919050565b7f536176616e743a205374616b6520616d6f756e7420646f65736e2774206d656560008201527f74207469657220726571756972656d656e74732e000000000000000000000000602082015250565b600061317060348361248b565b915061317b82613114565b604082019050919050565b6000602082019050818103600083015261319f81613163565b9050919050565b7f4e487b7100000000000000000000000000000000000000000000000000000000600052603260045260246000fd5b7f536176616e743a205468697320746965722069732066756c6c7920737562736360008201527f7269626564000000000000000000000000000000000000000000000000000000602082015250565b600061323160258361248b565b915061323c826131d5565b604082019050919050565b6000602082019050818103600083015261326081613224565b9050919050565b600061327282612595565b91507fffffffffffffffffffffffffffffffffffffffffffffffffffffffffffffffff82036132a4576132a3612c26565b5b600182019050919050565b60006132ca6132c56132c0846128c2565b612839565b612595565b9050919050565b6132da816132af565b82525050565b60006040820190506132f560008301856132d1565b6133026020830184612681565b9392505050565b6000819050919050565b600061332e61332961332484613309565b612839565b612595565b9050919050565b61333e81613313565b82525050565b60006040820190506133596000830185612e94565b6133666020830184613335565b9392505050565b7f52657761726420616c726561647920636c61696d656420666f7220746869732060008201527f7374616b65000000000000000000000000000000000000000000000000000000602082015250565b60006133c960258361248b565b91506133d48261336d565b604082019050919050565b600060208201905081810360008301526133f8816133bc565b9050919050565b7f414c4c20486578205374616b6573206d7573742067726561746572207468616e60008201527f206f7220657175616c20746f2031303030204865780000000000000000000000602082015250565b600061345b60358361248b565b9150613466826133ff565b604082019050919050565b6000602082019050818103600083015261348a8161344e565b9050919050565b7f4e6577207374616b6573206d757374206265207265676973746572656420746f60008201527f20636c61696d2072657761726473000000000000000000000000000000000000602082015250565b60006134ed602e8361248b565b91506134f882613491565b604082019050919050565b6000602082019050818103600083015261351c816134e0565b9050919050565b60006020820190506135386000830184612e94565b92915050565b6000613549826128e6565b9150613554836128e6565b9250828201905061ffff81111561356e5761356d612c26565b5b92915050565b7f416d6f756e74206d7573742062652067726561746572207468616e2030000000600082015250565b60006135aa601d8361248b565b91506135b582613574565b602082019050919050565b600060208201905081810360008301526135d98161359d565b9050919050565b60006040820190506135f56000830185612e94565b6136026020830184612e94565b9392505050565b7f496e73756666696369656e74204858522062616c616e63650000000000000000600082015250565b600061363f60188361248b565b915061364a82613609565b602082019050919050565b6000602082019050818103600083015261366e81613632565b9050919050565b7f496e73756666696369656e7420616c6c6f77616e636500000000000000000000600082015250565b60006136ab60168361248b565b91506136b682613675565b602082019050919050565b600060208201905081810360008301526136da8161369e565b9050919050565b60006060820190506136f66000830186612e94565b6137036020830185612e94565b6137106040830184612681565b949350505050565b60006020828403121561372e5761372d612532565b5b600061373c84828501612f39565b91505092915050565b7f5472616e73666572206661696c65640000000000000000000000000000000000600082015250565b600061377b600f8361248b565b915061378682613745565b602082019050919050565b600060208201905081810360008301526137aa8161376e565b9050919050565b7f4e487b7100000000000000000000000000000000000000000000000000000000600052604160045260246000fd5b60006060820190506137f56000830186612e94565b6138026020830185612681565b61380f6040830184612681565b949350505050565b600061382282612595565b915061382d83612595565b925082820190508082111561384557613844612c26565b5b9291505056fea2646970667358221220cbfc41a7b37476819fb1d7a392dd71b97d856a0689dafa9f0c992c5b2548d04a64736f6c63430008140033",
  "linkReferences": {},
  "deployedLinkReferences": {}
}